:100000000C9463060C94AA060C94AA060C94AA06F7
:100010000C94AA060C94AA060C94AA060C94AA06A0
:100020000C94AA060C94AA060C9488230C94C4225F
:100030000C94162C0C94AA060C94AA060C94AA06EE
:100040000C94AA060C94AA060C94AA060C94AA0670
:100050000C948A190C94222B0C94AA060C94AA06D0
:100060000C94AA060C94AA060C94AA060C94AA0650
:100070000C94AA060C94AA060C94AA060C94AA0640
:100080000C94AA060C94AA060C94AA060C94AA0630
:100090000C94AA060C94AA060C94AA060C94AA0620
:1000A0000C94AA060C94AA060C94AA065B0A5D0A94
:1000B000680A5F0A610A630A650A670A6A0A6C0AC3
:1000C0006E0A790A700A720A740A760A780A7B0A3A
:1000D000A30BA30BDD0BDD0B210C3D0CF60EF60E76
:1000E0007F0CF60E6A0D6A0DF60E0C0E770D770D6D
:1000F000770D770D770D770D770D770D770D770DE0
:10010000770D770D770D770D770D770D880DB20D83
:10011000B70DBE0DD50DD220F920A622F920A622BA
:1001200045216821A62269227822252D252D382DEA
:10013000382D2E2D382D382D382D252D252D332DCC
:10014000382D382D332D2900B3002302350034001B
:1001500000001B010000460000000000000000003D
:1001600000002A002B0014001A00080015001700D8
:100170000601045300001C0018000C0012001300BC
:100180003100390004421662074309610A0019016F
:10019000035300000B000D710E000F72330034008A
:1001A000E1001D001B000600190005006500025358
:1001B0004900110010003600370052003500E00001
:1001C000000FE3000007E2002C002A0001534C005E
:1001D000280001513800500051004F0000003A0043
:1001E0003B003C003D003E000000000047003F0097
:1001F0004000410042004300440000001E022E0067
:100200002602270231020000000000002D025F00DC
:1002100060006100570045000000220225022F0205
:10022000300224020000000000001F025C005D009C
:100230005E00560053000000200223022F00300011
:100240003502000000000000210259005A005B0046
:1002500055006700000000000000000000000000E2
:100260000000010000000100000062006300540073
:100270005800C35CC65CC55CC25CCA5CC95CF45C0B
:10028000000000000000000000000000000000006E
:10029000C45CC85CC75C0000CC5CCB5C00000000A8
:1002A0000000F9000000F0000000F900000000006C
:1002B000000000000000000000000000000000003E
:1002C000FA00F200F100F300FA000000CF5CD45C09
:1002D000CE5CD25C000000000000010000000000C5
:1002E000AA00A800A90000000000CD5CD35CD15C8E
:1002F000D05C000000000000005300000000AC00D3
:10030000AE00AB0000000000005C00000000000038
:1003100000000000000000000000000000000000DD
:1003200000000000000000000000000000000000CD
:1003300000000000000000004B004A0052004D0089
:100340004B00000000000000000000000000000062
:100350000000010000004E00500051004F004E0010
:10036000000000000000000000000000000000008D
:10037000000000000000000000000000000000007D
:10038000000000000000000000000000000000531A
:100390000000000000000000000000000000350028
:1003A0001E001F0020002100220046000000000067
:1003B000230024002500260027002A002B0014001B
:1003C0001A00080015001700000001004B001C0077
:1003D00018000C00120013003100390004001662EE
:1003E000070009610A00000000004E000B000D002C
:1003F0000E000F0033003400E1001D001B0006005A
:100400001900050000000000000011001000360077
:10041000370052002900E0000000E300E2002C0059
:100420002A00000000004C002800000038005000A6
:1004300051004F007267626C696768742064697369
:1004400061626C65205B454550524F4D5D3A2072AC
:1004500067626C696768745F636F6E6669672E6553
:100460006E61626C65203D2025750A007267626CC2
:100470006967687420746F67676C65205B454550D9
:10048000524F4D5D3A207267626C696768745F63B2
:100490006F6E6669672E656E61626C65203D202512
:1004A000750A0044454255473A2064697361626C9D
:1004B00065642E0A0044454255473A20656E6162E4
:1004C0006C65642E0A006261636B6C6967687420F6
:1004D000696E6372656173653A2025750A00626111
:1004E000636B6C69676874206465637265617365CA
:1004F0003A2025750A006261636B6C696768742035
:1005000064697361626C650A006261636B6C696740
:10051000687420656E61626C650A006261636B6C71
:100520006967687420746F67676C653A2025750A7F
:10053000006261636B6C6967687420737465703AFC
:100540002025750A007267626C6967687420656EA1
:1005500061626C65205B4E4F454550524F4D5D3A90
:10056000207267626C696768745F636F6E66696743
:100570002E656E61626C65203D2025750A000000C5
:100580000000000000000000000101020304050655
:10059000080A0C0F1114181C2024292E33393F4649
:1005A0004C535B626A7179818A929AA2AAB2B9C1EC
:1005B000C8CFD5DCE1E7EBF0F4F7FAFCFDFEFFFE77
:1005C000FDFCFAF7F4F0EBE7E1DCD5CFC8C1B9B236
:1005D000AAA29A928A8179716A625B534C463F392A
:1005E000332E2924201C1814110F0C0A08060504A8
:1005F00003020101000000000000000000000000F4
:1006000000000000000000000101010101010101E2
:1006100001020202020202020203030303030303B4
:100620000404040404050505050506060606060778
:10063000070707080808080909090A0A0A0B0B0B2B
:100640000C0C0C0D0D0D0E0E0E0F0F1010101111C5
:100650001212131314141515161617171818191942
:100660001A1A1B1C1C1D1D1E1F1F202121222323A3
:1006700024252526272828292A2B2C2C2D2E2F30DF
:10068000313132333435363738393A3B3C3D3E3FF1
:10069000404142434445464748494B4C4D4E4F50DC
:1006A000525354555758595A5C5D5E606163646596
:1006B00067686A6B6C6E6F7172747677797A7C7D1D
:1006C0007F8182848687898B8D8E9092949597996D
:1006D0009B9D9FA1A2A4A6A8AAACAEB0B2B4B6B985
:1006E000BBBDBFC1C3C5C8CACCCED0D3D5D7DADC59
:1006F000DEE1E3E6E8EAEDEFF2F4F7F9FCFF72671A
:10070000626C696768742074696D657220656E61DA
:10071000626C65642E0A007267626C696768742097
:100720006D6F6465205B4E4F454550524F4D5D3AAD
:100730002025750A007267626C69676874206D6FA6
:100740006465205B454550524F4D5D3A2025750A42
:10075000007267626C6967687420656E61626C65BF
:10076000205B454550524F4D5D3A207267626C697F
:100770006768745F636F6E6669672E656E61626C31
:1007800065203D2025750A007267626C6967687490
:100790002073657420687376205B4E4F4545505238
:1007A0004F4D5D3A2025752C25752C25750A007254
:1007B00067626C696768742073657420687376205B
:1007C0005B454550524F4D5D3A2025752C25752CC3
:1007D00025750A007267626C6967687420726169C6
:1007E0006E626F7720736574206873763A20256493
:1007F0002C25642C25642C25750A00FFAA7F554002
:100800007267626C696768742074696D65722064D0
:10081000697361626C652E0A002223252628292A25
:100820002C2D2F3032333536383A3B3D3E40424353
:100830004547494A4C4E5051535557595A5C5E6092
:1008400062646668696B6D6F71737577797B7D7FA4
:1008500081838587898A8C8E90929496989A9C9EA3
:100860009FA1A3A5A7A8AAACAEAFB1B3B4B6B8B9BF
:10087000BBBCBEBFC1C2C3C5C6C7C9CACBCCCDCE27
:10088000D0D1D2D2D3D4D5D6D7D7D8D9D9DADADB0A
:10089000DBDBDCDCDCDCDCDDDDDDDDDCDCDCDCDC96
:1008A000DBDBDBDADAD9D9D8D7D7D6D5D4D3D2D2D5
:1008B000D1D0CECDCCCBCAC9C7C6C5C3C2C1BFBEBD
:1008C000BCBBB9B8B6B4B3B1AFAEACAAA8A7A5A328
:1008D000A19F9E9C9A98969492908E8C8A898785E7
:1008E00083817F7D7B79777573716F6D6B696866C6
:1008F0006462605E5C5A5957555351504E4C4A4998
:1009000047454342403E3D3B3A3836353332302F3F
:100910002D2C2A2928262523227267626C69676894
:10092000745F636F6E6669672E7370656564203DE2
:100930002025640A007267626C696768745F636F80
:100940006E6669672E76616C203D2025640A007210
:1009500067626C696768745F636F6E6669672E7340
:100960006174203D2025640A007267626C696768C3
:10097000745F636F6E6669672E687565203D20251C
:10098000640A007267686C696768745F636F6E669B
:1009900069672E6D6F6465203D2025640A007267CB
:1009A000626C696768745F636F6E6669672E656EF7
:1009B00061626C65203D2025640A007267626C6983
:1009C0006768745F636F6E666967206570726F6DCC
:1009D0000A007267626C696768745F696E69742087
:1009E0007267626C696768745F636F6E6669672EB1
:1009F0006D6F6465203D20302E205772697465202C
:100A000064656661756C742076616C7565732074BD
:100A10006F20454550524F4D2E0A007267626C6937
:100A20006768745F696E6974206565636F6E666977
:100A300067206973206E6F7420656E61626C6564F7
:100A40002E0A007267626C696768745F696E697408
:100A5000207374617274210A007267626C6967683E
:100A6000745F696E69742063616C6C65642E0A0042
:100A70000A002530313662003A2000253032580015
:100A80000A722F63203031323334353637383941EA
:100A900042434445460A000A0025303258006B653F
:100AA00079626F6172645F7365745F6C65643A202C
:100AB0000000047F3F1F643214643214783C1E1E11
:100AC000140A055B735D004B6579626F6172642087
:100AD00073746172742E0A000631FF0974A1010952
:100AE00075150026FF00952075088102097615000E
:100AF00026FF00952075089102C005010902A10199
:100B000085020901A1000509190129051500250122
:100B10009505750181029501750381010501093073
:100B200009311581257F95027508810609381581DF
:100B3000257F950175088106050C0A380215812567
:100B40007F950175088106C0C005010980A1018556
:100B5000031601002603001A81002A8300751095F0
:100B6000018100C0050C0901A101850416010026C0
:100B70009C021A01002A9C02751095018100C00593
:100B8000010906A101050719E029E71500250195CE
:100B9000087501810295017508810105081901296F
:100BA00005950575019102950175039101050719D8
:100BB0000029FF150026FF00950675088100C05B1F
:100BC000435D005B445D005B535D005B575D005B14
:100BD000525D0009025B00030100A0FA0904000055
:100BE0000103010100092111010001224000070554
:100BF000810308000A090401000103000000092123
:100C0000110100012285000705820320000A090462
:100C1000020002030000000921110100012222004C
:100C200007058303200001070503032000011201CB
:100C3000100100000008EDFE0000010001020301A8
:100C40000403300000000C03690064006F006200C0
:100C50006F000000080359006F00750000000403D6
:100C600009040A002530325820006B6579626F61F3
:100C700072645F7265706F72743A2000290A0025F1
:100C800075002F002575005D2800256400200025D3
:100C90006400200025640020002564007C002530CD
:100CA0003258006D6F7573656B6579205B62746E89
:100CB0007C782079207620685D287265702F6163CA
:100CC0006C293A205B0011241FBECFEFDAE0DEBFB3
:100CD000CDBF04B603FE27C08091850290918602A5
:100CE000A0918702B09188028730904BA740B04B0B
:100CF000D1F410928502109286021092870210920F
:100D0000880214BE84B7877F84BF0FB6F894A89575
:100D100080916000886180936000109260000FBE37
:100D2000E0E0F8E3099511E0A0E0B1E0E6EAFFE5D4
:100D300002C005900D92A036B107D9F722E0A0E6D7
:100D4000B1E001C01D92A538B207E1F70E94911BE6
:100D50000C94D12F0C940000FF93EF93E09160016D
:100D6000F0916101309709F00995EF91FF91089595
:100D7000FC018591803011F0EFDFFBCF0895FF2754
:100D8000E0E230E247FF0CC0419597FF09C0EDE279
:100D90006095709580959095611D711D811D911DC7
:100DA00027FF02C0219530E350E2AA27660F771F84
:100DB000881F991FAA1FA41710F0A41B63955A95AA
:100DC000A9F7AA3008F0A95FA05DAF93F39561156C
:100DD00071058105910541F7ED3211F4EF93F3951B
:100DE000F21718F43F93F395FBCF8F91B5DFFA9587
:100DF000E1F70895E991F9918591803021F08532EC
:100E000019F0AADFF9CF089520E0E8945591553202
:100E1000C1F3503311F4689455915A3348F4505348
:100E200090F3220F022E220F220F200D250FF4CF58
:100E30000EF4219589919991533619F3533729F17D
:100E4000533559F1BC0188279927E8945C3621F481
:100E50008991999168945591543639F446EF7EF012
:100E600077FF0DC08FEF9FEF0AC055374AE039F08A
:100E7000583540E121F0523642E009F00895FF93E1
:100E8000EF937DDFEF91FF91B7CFFF93EF93FC01DD
:100E900081918030B9F360DFFBCFFF93EF9368DF80
:100EA000F1CFDF93CF93CDB7DEB72596A3DFCF91F8
:100EB000DF9108958F929F92AF92BF92CF92DF926F
:100EC000EF92FF920F931F93CF93DF9300D000D048
:100ED0001F92CDB7DEB7FC010081D1808381948160
:100EE000892B39F01FEFD11206C091E00F3F19F4A2
:100EF00003C091E001C090E090FF02C00C94FD0F90
:100F00007F0185E0DE01119601900D928A95E1F74F
:100F1000F701228189819A81222349F00E942325A9
:100F2000182F682F89819A810E949C2503C00E94F6
:100F30007025182F2BE4129FF00111243FE0D39E5F
:100F4000E00DF11D1124E00FF11DEE0FFF1FEA5B14
:100F5000FE4F05911491033C8CE5180708F45BC320
:100F6000053D9CE5190708F440C0043FECE51E0769
:100F700009F051C3F7018281882311F40C94FD0F0D
:100F800080917702982F909590FB80F9809377025B
:100F900040917702509178026091790270917A02C3
:100FA00083E190E00E941C2F8091770280FD02C0B7
:100FB0000C94FD0F60916F0270917002809171022C
:100FC000909172020F900F900F900F900F90DF9101
:100FD000CF911F910F91FF90EF90DF90CF90BF9036
:100FE000AF909F908F900C94C725F7018281882342
:100FF00009F411C38091770280FF15C08E7F809322
:101000007702409177025091780260917902709155
:101010007A0283E190E00E941C2FFDC2F7018281D9
:10102000882309F459C0109262010A3CFCE51F07AD
:1010300009F466C120F5023C3CE5130709F4FAC047
:1010400008F008C705319CE5190778F40230ECE593
:101050001E0708F00CC20115FCE51F0709F458C073
:1010600001301C4509F48EC026C306313CE5130748
:1010700009F469C2013C1C4509F49DC21CC3013D31
:101080009CE5190709F4A6C188F40D3CFCE51F078F
:1010900009F499C108F060C70B3C3CE5130709F45B
:1010A0005CC10C3C1C4509F467C105C3053DFCE56A
:1010B0001F0709F4AEC108F47BC70D3D9CE5190775
:1010C00009F4CCC10E3DECE51E0709F49BC00C3DB4
:1010D0001C4509F0F0C2BAC10A3CFCE51F0709F43F
:1010E0000FC108F077C0023C3CE5130709F4A2C029
:1010F00008F0B0C605319CE5190708F020C202309F
:10110000ECE51E0708F0B3C10115FCE51F07B1F5BA
:10111000F7018281882309F470C71092E6010E94CA
:10112000572DFFEF04E31CE0F15000401040E1F7C1
:1011300000C0000081E08093E00080E28093D8004E
:101140001092C9008FE19EE40197F1F700C0000002
:1011500087E090EBDC018093850290938602A09358
:101160008702B09388029CE088E10FB6F894A895B6
:10117000809360000FBE90936000FFCF01301C454C
:1011800009F0A8C2F7018281882309F436C780914B
:10119000CA01982F9095917090FB80F98093CA01B5
:1011A000992319F085EB94E002C083EA94E00F9054
:1011B0000F900F900F900F90DF91CF911F910F9193
:1011C000FF90EF90DF90CF90BF90AF909F908F9067
:1011D0000C94B806013D9CE5190709F4FBC008F41E
:1011E000B2C0053DFCE51F0709F413C108F4E0C6D1
:1011F0000D3D9CE5190709F431C10E3DECE51E07D4
:1012000009F020C1F7018281882309F4F6C60F9006
:101210000F900F900F900F90DF91CF911F910F9132
:10122000FF90EF90DF90CF90BF90AF909F908F9006
:101230000C94712CF7018281882309F4DEC6809119
:10124000DB01809581701F928F938CE694E09F93D1
:101250008F930E9451078091DB010F900F900F90A8
:101260000F9080FF3AC08E7F8093DB016091DB019D
:101270007091DC018091DD019091DE010E94941457
:101280008091DB0181701F928F9384E394E09F93A0
:101290008F930E9451070E946012FFEF00E712E057
:1012A000F15000401040E1F700C000000F900F9097
:1012B0000F900F900F900F900F900F900F90DF9165
:1012C000CF911F910F91FF90EF90DF90CF90BF9043
:1012D000AF909F908F900C946F120F900F900F9083
:1012E0000F900F90DF91CF911F910F91FF90EF9092
:1012F000DF90CF90BF90AF909F908F900C94EF15A0
:10130000F7018281882309F478C64091DE0128E044
:10131000421B08F440E021E06091DD018091DC0196
:101320000F900F900F900F900F90DF91CF911F9122
:101330000F91FF90EF90DF90CF90BF90AF909F9074
:101340008F900C94A6140D3CFCE51F07E1F108F00A
:1013500003C60B3C3CE5130759F4F701828188234F
:1013600009F44BC68091DF01833090F48F5F0EC08B
:101370000C3C1C4509F0AEC1F7018281882309F4B9
:101380003CC68091DF01882319F081508093DF01F2
:101390006091DB017091DC018091DD019091DE01B3
:1013A0000F900F900F900F900F90DF91CF911F91A2
:1013B0000F91FF90EF90DF90CF90BF90AF909F90F4
:1013C0008F900C949414F7018281882309F415C638
:1013D00081E025C0F7018281882309F40EC60E94AE
:1013E00079148F50853098F40F900F900F900F90D4
:1013F0000F90DF91CF911F910F91FF90EF90DF90B1
:10140000CF90BF90AF909F908F900C9412168FE06A
:1014100006C0F7018281882309F4EFC583E20F90AB
:101420000F900F900F900F90DF91CF911F910F9120
:10143000FF90EF90DF90CF90BF90AF909F908F90F4
:101440000C94EC150C3D1C4509F044C1F701828158
:10145000882309F4D2C51092E201CFC5F701828139
:10146000882309F4CAC582E08093E201C6C5F7016A
:101470008281882309F41FC10E94662C811102C059
:101480000E94712C84E090E00E94F62E90E09093F0
:10149000B1018093B001F801E350FC45E231F10560
:1014A00030F4EA5AFF4F8091B0010C94A42F809140
:1014B000B001816027C0826025C0846023C0806144
:1014C00021C080621FC080641DC080681BC0846012
:1014D000886018C08E7F16C08D7F14C08B7F12C0AD
:1014E0008F7E10C08F7D0EC08F7B0CC08F770AC09F
:1014F0008B7F877F07C087FB222720F991E0922707
:1015000090FB87F98093B0016091B00184E090E096
:101510000E940A2F1092E6010F900F900F900F90EB
:101520000F90DF91CF911F910F91FF90EF90DF907F
:10153000CF90BF90AF909F908F900C94572D063115
:101540003CE51307A1F5F7018281882391F0809192
:10155000E6018A7A91E009F490E0909363018111A9
:1015600002C069E201C065E38DEF91E00E944C2C5E
:101570000BC080916301811102C069E201C065E383
:101580008DEF91E00E943F2C0F900F900F900F90E5
:101590000F90DF91CF911F910F91FF90EF90DF900F
:1015A000CF90BF90AF909F908F900C94B924013C46
:1015B0001C4509F08FC0F7018281882309F41DC5FD
:1015C00080916F0080FF1BC080916F008E7F8093A1
:1015D0006F008091840286950F900F900F900F906E
:1015E0000F90DF91CF911F910F91FF90EF90DF90BF
:1015F000CF90BF90AF909F908F900C94ED19109268
:10160000A5011092A4011092A30180916F00816046
:1016100080936F00F2C4003FFCE51F07B9F426E297
:1016200041EE60EEC7010F900F900F900F900F905A
:10163000DF91CF911F910F91FF90EF90DF90CF90AE
:10164000BF90AF909F908F900C94E511013F2CE5D7
:101650001207C0F4083D3CE5130721F427E245EEEC
:1016600065EEE0CF093D8CE5180719F428E241E06A
:10167000F7CF073D9CE5190709F0D0CC26E241EEF3
:1016800061EED0CF023FECE51E0721F426E241EEE9
:1016900062EEC8CF023FFCE51F0720F427E245EECB
:1016A00064EEC0CF033F2CE5120709F0B7CC27E268
:1016B00045EE66EEB7CFF701828100811181882364
:1016C00061F0C8010E942325D82E682FC8010E940E
:1016D0009C2507C0F70100811181C8010E94702577
:1016E000D82EB8018D2D0E94FA168C01982EF70184
:1016F000A580A2949FE0A922D280D11010927502F9
:1017000080917302877079F0DD2069F080E2800FAC
:10171000883048F082E00E947E26809173028770B4
:10172000CC24C3948111C12CB12EB2948FE0B82285
:101730008B2D90E08E30910508F058C3FC01E859DC
:10174000FF4F0C94A42F812F807F1F70882311F0EE
:101750001295107FDD20B9F0112309F447C280E211
:10176000800F883010F0911006C08091E601182B90
:101770001093E60105C080917502182B1093750235
:101780000E94B92433C2802F0E94752D112309F4C1
:101790002DC3005E1095083010F0911006C08091A6
:1017A000E60118231093E60105C080917502182305
:1017B000109375020E94B92419C3812F807F1F7076
:1017C000803211F01295107F992021F0F1E09F16E0
:1017D000E1F027C0DD2081F080917602AA2051F04F
:1017E00001E0A01207C0182B181709F4FFC21093CC
:1017F0007602FCC2812B83C1AA2021F021E0A2162F
:1018000009F4F4C20E940D2D1AC0DD2029F035E044
:101810003A1508F4EBC20FC084E08A1508F4E6C25A
:101820000EC0DD2051F0AA2031F0F701858180FF44
:10183000DDC18F708583812F62C1A110E9C1812F25
:1018400064C1812F86958695837019F0813059F097
:10185000CDC2DD2019F0C801937002C080E090E095
:101860000E94C311CEC2DD2019F0C801937002C0DE
:1018700080E090E00E94AD11C4C2DD20F9F0053F88
:1018800051F0063F71F0043FA9F4809164019091FA
:10189000650181600BC08091640190916501826057
:1018A00005C0809164019091650184609093650109
:1018B00080936401802F0E94BA2A1EC0053F51F018
:1018C000063F71F0043FA9F4809164019091650195
:1018D0008E7F0BC080916401909165018D7F05C062
:1018E00080916401909165018B7F90936501809355
:1018F0006401802F0E94F3290E947E2B82C2812FD7
:10190000837009F070C0D1107AC2202F22952695DD
:101910002770220F220F602F6F70862F90E0A0E0BB
:10192000B0E04C015D01022E04C0880C991CAA1C79
:10193000BB1C0A94D2F704FF12C08FE090E0A0E035
:10194000B0E004C0880F991FAA1FBB1F2A95D2F7C9
:10195000AC01BD01409550956095709503C040E085
:1019600050E0BA01812F8695869583708230E9F028
:1019700088F500917B0210917C0220917D023091CC
:101980007E02813069F0D501C401842B952BA62BF2
:10199000B72BBC01CD01602371238223932320C088
:1019A000802A912AA22AB32A15C0D501C401842B0A
:1019B000952BA62BB72B00917B0210917C022091D6
:1019C0007D0230917E02BC01CD0160277127822704
:1019D000932706C0CB01BA01682979298A299B2956
:1019E0000E94B8260CC2DD2019F0812F817001C041
:1019F0008695882309F403C2202F22952695277007
:101A0000220F220F602F6F70862F90E0A0E0B0E0D1
:101A10004C015D01022E04C0880C991CAA1CBB1C41
:101A20000A94D2F704FF12C08FE090E0A0E0B0E08B
:101A300004C0880F991FAA1FBB1F2A95D2F7AC01BB
:101A4000BD01409550956095709503C040E050E011
:101A5000BA01812F8695869583708230E9F088F5EA
:101A600000916F0210917002209171023091720208
:101A7000813069F0D501C401842B952BA62BB72B9F
:101A8000BC01CD01602371238223932320C0802ACF
:101A9000912AA22AB32A15C0D501C401842B952B03
:101AA000A62BB72B00916F0210917002209171024A
:101AB00030917202BC01CD016027712782279327E4
:101AC00006C0CB01BA01682979298A299B290E947D
:101AD000C72595C1802F90E0FC01E05EF109E5315A
:101AE000F10508F07EC0EA58FF4F0C94A42F0F7048
:101AF000812F8F71DD2031F00E949726802F0E9468
:101B00006B2D74C10E945926802F0E94602D6EC1DA
:101B1000DD2019F1F4E0FA1508F468C11F7181E0C5
:101B200090E0A0E0B0E0AC01BD0104C0440F551F3F
:101B3000661F771F1A95D2F780916F0290917002FD
:101B4000A0917102B09172028A019B0108271927A6
:101B50002A273B27C901B80125C025E02A1508F42A
:101B600045C1DCCFDD2029F0812F8F712CC0DD2015
:101B7000D9F3812F8F710E94592638C1DD2079F069
:101B80001F7181E090E0A0E0B0E0BC01CD0104C095
:101B9000660F771F881F991F1A95D2F703C060E060
:101BA00070E0CB010E94C72521C1DD2079F01F71B3
:101BB000812F0E94972638E0139FC0011124836073
:101BC00080937302812F0E94972610C181E00E94AA
:101BD0007E2681E08A1508F009C182E00E947E26F7
:101BE00005C1DD2039F0AA2009F4BECF802F0E9464
:101BF000DC2DFCC0AA2009F4BCCF093349F49FEFC7
:101C0000E3ECF9E09150E040F040E1F700C0000063
:101C1000802F0E94752DEAC0D110F3C01F701230C2
:101C200009F45BC028F4112369F0113089F1DEC09A
:101C3000143009F4D7C008F49BC0153009F0D6C0A1
:101C400080E0D1C020918402822F8695482F50E0F9
:101C50004330510544F48F5F982F990F822F817084
:101C6000892B809384026091840261606093840276
:101C700086E090E00E940A2F8091CA0180FFACC0EC
:101C80008091840286951F928F9386EC94E09CC08D
:101C900080918402982F9695A1F09158990F8170A8
:101CA000892B809384028E7F91E009F490E060910B
:101CB000840290FB60F96093840286E090E00E94C9
:101CC0000A2F8091CA0180FF87C080918402869587
:101CD0001F928F938EED94E077C010918402117063
:101CE0008091CA0180FF0CC01F921F938BE195E089
:101CF0009F938F930E9451070F900F900F900F901A
:101D0000609184021123B9F060FF7BC06E7F609305
:101D1000840286E090E00E940A2F8091CA0180FF31
:101D200008C086EF94E09F938F930E9451070F9015
:101D30000F9080E054C060FD64C0616060938402D5
:101D4000613019F483E0809384026091840286E01C
:101D500090E00E940A2F8091CA0180FF3DC089E077
:101D600095E09F938F930E9451070F900F9034C07E
:101D700080918402282F26952F5F2F77922F990F1D
:101D80008170892B80938402243018F081708093B5
:101D90008402809184028E7F91E009F490E060914A
:101DA000840290FB60F96093840286E090E00E94D8
:101DB0000A2F8091CA0180FF0FC08091840286950E
:101DC0001F928F9381E395E09F938F930E94510719
:101DD0000F900F900F900F908091840286950E9433
:101DE000ED190FC083E00E94D6290BC008E0B016A1
:101DF00031F0B01630F086EF8B0D823010F40E9477
:101E0000D911CC2009F4F9C08091730280FDF5C08E
:101E1000F70112828595859585950E949726C701C1
:101E20000E945A07809173028595859585950F903C
:101E30000F900F900F900F90DF91CF911F910F9106
:101E4000FF90EF90DF90CF90BF90AF909F908F90DA
:101E50000C945926063C9CE5190771F4F701828120
:101E6000882309F4CAC08091DC0121E04091DE01A1
:101E70006091DD01885054CA073CECE51E0708F06C
:101E80003DC0043CFCE51F07E9F4F701828188238B
:101E900009F4B3C08091E601827209F0A5CA0F90DF
:101EA0000F900F900F900F90DF91CF911F910F9196
:101EB000FF90EF90DF90CF90BF90AF909F908F906A
:101EC0000C940916053C1C4558F4F70182818823BF
:101ED00009F493C08091E601827209F485CADFCFCC
:101EE000F7018281882309F488C08091DC0121E018
:101EF0004091DE016091DD01885F12CA083C3CE53B
:101F0000130779F4F7018281882309F476C0609180
:101F1000DD0128E0621B08F460E021E04091DE0171
:101F2000FDC9093C1C4560F4F7018281882309F44E
:101F300064C06091DD0128E0620F08F46FEFEDCF1F
:101F4000F7018281882309F458C04091DE0128E01E
:101F5000420F08F44FEFDFC90F3C9CE5190769F405
:101F6000F7018281882309F448C00E9479148650C1
:101F7000823008F439CA86E052CA003D1C4560F43C
:101F8000F70182818823C9F10E947914825083303D
:101F900008F42ACA82E043CAF7018281882369F1E2
:101FA0000E9479148950853008F41ECA89E037CA26
:101FB000033D3CE5130731F4F70182818823E9F002
:101FC00088E12DCA043D1C4560F4F7018281882315
:101FD000A1F00E9479148551823008F405CA85E188
:101FE0001ECAF7018281882341F00E947914895129
:101FF000893008F4F9C989E112CA0F900F900F9047
:102000000F900F90DF91CF911F910F91FF90EF9064
:10201000DF90CF90BF90AF909F908F9008950895DC
:10202000AF92BF92CF92DF92EF92FF920F931F93E6
:10203000CF93DF93F82EE62EE901E42FF0E0611153
:1020400006C0E250FA4F8491E82F482F7BC0062F3C
:1020500010E026E0829FC00111242FEF30E0B9018B
:102060000E945A2F5BEA5603C001579F900D11241E
:102070008F0D911D8F0D911D982F990F890F69015B
:10208000C01AD10ACE9ED001CF9EB00DDE9EB00DFB
:1020900011249B2FE89E70011124EF2CFF2469016D
:1020A000CE18DF08CE9E7001CF9EF00CDE9EF00CA5
:1020B00011245901A81AB108A09E6001A19ED00C5C
:1020C000B09ED00C11240D2D1127201B310B2E9FFB
:1020D00080012F9F100D3E9F100D1124812F623023
:1020E000710591F048F461157105E9F061307105F1
:1020F000C1F4842F4F2D17C06430710571F040F08A
:102100006630710581F00DC0842F4B2F912F0BC0CD
:10211000E42F4B2F9E2F8F2D06C08B2F942F412FF6
:1021200002C08B2F9F2DE42FF0E0E250FA4F449134
:10213000E82FF0E0E250FA4F8491E92FF0E0E2500E
:10214000FA4FE49149838883EA83DF91CF911F910D
:102150000F91FF90EF90DF90CF90BF90AF900895D8
:102160009091B00192FF0DC0282F2871283019F4EA
:10217000877F846006C0282F2471243011F48B7F60
:10218000886093FF0DC0282F2871283119F4877EAD
:10219000846106C0282F2471243111F48B7E88615C
:1021A00094FD877E0895CF92DF92EF92FF928C3755
:1021B00024E1920728F469E070E00E945A2F29C0B8
:1021C000A0E0B0E08A50974DAF4FBF4F6627782F01
:1021D000892F9A2F25EF38E241E050E00E94822FAC
:1021E00069017A01CA01B9010E943E2F9B01AC012D
:1021F000C701B6010E943E2FBB27A92F982F872F1A
:10220000009721E0A207B10511F0BC0102C06FEFF9
:102210007FEFCB01FF90EF90DF90CF9008951F9359
:10222000CF93DF93CDB7DEB767970FB6F894DEBFD5
:102230000FBECDBF4B8B5C8B6D8B7E8B8F8B86E007
:102240009E01235F3F4FD901E82F1D92EA95E9F7E0
:1022500095E0FE017396D90101900D929A95E1F7F0
:10226000F901DE01179601900D928A95E1F7CE01F2
:1022700007960E94342781113EC086E0FE01379602
:10228000DE01119601900D928A95E1F7FF81E885B4
:102290006A857B856115710531F0EF3F31F481E08E
:1022A000FF3F19F403C081E001C080E080FD23C03E
:1022B00020910B0230E0C901019687709927409167
:1022C0003C0250E08417950779F1F983EA837D8316
:1022D0006C8396E0929FD001939FB00D1124A45F70
:1022E000BD4FFE01319601900D929A95E1F78093D2
:1022F0000B020E94C22616E080913C0290910B02D4
:10230000891709F1189FC0011124845F9D4F0E9415
:1023100034278823C1F080913C0290E001968770B9
:10232000992780933C02E8CF1092E6010E94572D36
:1023300010920B0210923C02E5E0F2E086E0DF0131
:102340001D928A95E9F767960FB6F894DEBF0FBE27
:10235000CDBFDF91CF911F9108952091A0013091C1
:10236000A1012817390771F09093A1018093A00172
:10237000E091B301F091B401309721F00084F18530
:10238000E02D0994089520919E0130919F01281716
:10239000390771F090939F0180939E01E091B30102
:1023A000F091B401309721F00680F781E02D099477
:1023B0000895E091B301F091B401309721F00190BC
:1023C000F081E02D099480E008950F931F93CF933F
:1023D000DF93C62FD42F122FFC0182818823C9F0EE
:1023E000609362010E94722B90939D0180939C01E7
:1023F00080E28C0F883008F05EC0C77081E001C0B9
:10240000880FCA95EAF7DF91CF911F910F910C9435
:102410006B2D8091620168133EC080919C01909168
:102420009D010E94482B883C9105A8F500E20D0F04
:10243000CD17B9F080E28C0F883040F4C77081E08E
:1024400001C0880FCA95EAF70E94602D083048F451
:1024500081E09D2F977001C0880F9A95EAF70E943E
:102460006B2D812F0E94DC2D193349F4FFEF23ECF3
:1024700089E0F15020408040E1F700C00000812F4A
:102480000E94752D0830B8F4D77081E001C0880F24
:10249000DA95EAF70AC080E28C0F883060F4C770E2
:1024A00081E001C0880FCA95EAF7DF91CF911F91B3
:1024B0000F910C94602DDF91CF911F910F91089592
:1024C0001092E1018091CA0180FF08C080E098E08D
:1024D0009F938F930E9451070F900F9008958091C2
:1024E000DB0180FF0AC0809A81B38E7F91B3916037
:1024F0002FB7F894ECE6F1E00BC0ECE6F1E01182C6
:1025000010821282339631E0EC39F307C1F7EBCF3A
:1025100031E0EC39F30789F0319148E091BB0000DC
:1025200000C037FF81BB330F000000C000C000C0F7
:1025300081BB00C04A9591F7EBCF2FBF87EC90E0AD
:102540000197F1F700C000000895EF92FF920F93FA
:102550001F93CF93DF938C01CCE6D1E0E12CF12CDB
:10256000F8018481F8E0EF16F1041CF4882339F0B7
:1025700002C0811104C09E014091DE0102C09E0193
:1025800040E06091DD018091DC010E9410108FEF2E
:10259000E81AF80A239690E1E916F10409F70E9477
:1025A0006F12F801848190E00196817099278483ED
:1025B000DF91CF911F910F91FF90EF900895EF92CF
:1025C000FF920F931F93CF93DF93EC018C819D813A
:1025D0000196817099279D838C838CE6E82E81E09B
:1025E000F82E10E005E5212F26958C819D81820F24
:1025F000911D817097014091DE016091DD01809F06
:10260000802D11240E9410101F5F83E0E80EF11C42
:10261000103149F7DF91CF911F910F91FF90EF900B
:102620000C946F120F931F93CF93DF93CCE6D1E0FE
:10263000FE01118210821282339681E0EC39F80794
:10264000C1F700E010E080916A01082E000C990BA0
:102650000817190794F080910C01082E000C990BB3
:102660008017910754F09E014091DE016091DD01D9
:102670008091DC010E94101003C0198218821A8216
:102680000F5F1F4F239600311105E9F60E946F126C
:1026900080910B0190916A01980F90936A012091AB
:1026A0000C01280F20930C01121614F49F301CF01B
:1026B000819580930B01DF91CF911F910F91089528
:1026C000CF92DF92EF92FF920F931F93CF93DF93FE
:1026D000FC01828180FF03C0DD24DA9402C0DD2486
:1026E000D394CCE6D1E000E010E0198218821A827F
:1026F00094E0E92EF12CC12C809169018C0D87FDAD
:10270000805F082E000C990B0817190791F480912F
:10271000DE018E9DA0018F9D500D1124559547958A
:10272000559547959E016091DD018091DC010E94E5
:102730001010CD0CF1E0EF1AF108F1F60F5F1F4F0A
:1027400023960031110589F60E946F12809169016C
:1027500091E0D91206C0811102C08FE006C08150FD
:1027600004C090E001968F70992780936901DF91F2
:10277000CF911F910F91FF90EF90DF90CF90089530
:10278000EF92FF921F93CF93DF93EC018CE6E82E3C
:1027900081E0F82E10E08C8197014091DE0160917C
:1027A000DD01810F0E941010115F83E0E80EF11C23
:1027B000103F89F70E946F129A818C8190FF02C0AE
:1027C0008F5F01C081508C83DF91CF911F91FF906B
:1027D000EF9008959091DB0190FF0CC0ECE6F1E0E2
:1027E000818360834283339691E0EC39F907C1F726
:1027F0000C946F1208950F931F93CF93DF9300D023
:102800001F92CDB7DEB78C0180916B0181110AC098
:102810009E012F5F3F4F4FEF6FEF0E9410108A8194
:1028200080936B01F8018481813051F028F082306F
:1028300061F440916B010AC080916B0140E007C0D8
:1028400060916B0140E080E003C040E080E060E028
:102850000E94EA13F801848190E0019663E070E041
:102860000E946E2F84830F900F900F90DF91CF9175
:102870001F910F910895CF93DF9300D01F92CDB792
:10288000DEB79091DB0190FF0AC09E012F5F3F4FA2
:102890000E9410104B8169818A810E94EA130F9077
:1028A0000F900F90DF91CF910895CF93DF93EC01BC
:1028B000EBEDF1E0438162818C810E943B148C81BD
:1028C0008F5F8C83DF91CF910895CF93DF93EC01DD
:1028D000EC81F0E0E75EF74F4491EBEDF1E06281CF
:1028E00081810E943B148C818F5F8C83DF91CF911B
:1028F00008958091DB0180FF02C08695089580E0F5
:1029000008958091DB01282F269530E021153105AF
:1029100019F48170826005C02532310524F0817080
:1029200088648093DB010895CF92DF92EF92FF924B
:102930006B017C010E948114B701A60188E090E040
:10294000FF90EF90DF90CF900C941C2F3F924F920E
:102950005F926F927F928F929F92AF92BF92CF922F
:10296000DF92EF92FF920F931F93CF93DF9300D0EC
:102970001F92CDB7DEB7182F762E042F422E9091DE
:10298000DB0190FFAAC0E92FE695AE2FB0E0A85E6C
:10299000BE4F8C918093E0019E7F923061F49E0146
:1029A0002F5F3F4F812F0E9410104B8169818A81D8
:1029B0000E94EA1360C0823019F40091DE015BC00E
:1029C000863019F41091DC0156C08930D9F3893171
:1029D00009F051C0E9518E2F8170582E81E0652C8D
:1029E0006826E695F0E0E550F84FC590D4903CE6B7
:1029F000A32E31E0B32EE12CF12CDD2444ED842E06
:102A000047E0942ECE9CC001CF9C900DDE9C900D93
:102A1000112424E0969587952A95E1F7312E5110DF
:102A200002C0380E01C0381A8091CA0180FF11C05F
:102A3000DF92CF921F926F921F923F92FF92EF927E
:102A40009F928F920E9451070FB6F894DEBF0FBE7F
:102A5000CDBF9501402F672D832D0E9410109FEF51
:102A6000E91AF90A83E0A80EB11C90E1E916F10415
:102A700049F60E946F121093DC017092DD01009301
:102A8000DE014420C9F06091DB017091DC0180918E
:102A9000DD019091DE010E9494148091DE011F926D
:102AA0008F938091DD011F928F938091DC011F92A3
:102AB0008F938FEA97E008C01F920F931F927F9227
:102AC0001F921F9388E897E09F938F930E9451076E
:102AD0000FB6F894DEBF0FBECDBF0F900F900F90D2
:102AE000DF91CF911F910F91FF90EF90DF90CF90EA
:102AF000BF90AF909F908F907F906F905F904F901E
:102B00003F90089520E00C94A6149091DB0190FF73
:102B10005FC09170811102C0926006C0853210F0D2
:102B2000986402C0880F982B9093DB01662391F084
:102B30006091DB017091DC018091DD019091DE01FB
:102B40000E9494148091DB0186951F928F9385E3F8
:102B500097E007C08091DB0186951F928F9387E1F4
:102B600097E09F938F930E9451070F900F900F90C3
:102B70000F906091DB01669570E04BE050E080E0E3
:102B800091E00E94C42F892B19F00E94601215C099
:102B900081E08093E1010E94722B9093D601809393
:102BA000D5018091CA0180FF08C08EEF96E09F9307
:102BB0008F930E9451070F900F9081E08093D8016E
:102BC0004091DE016091DD018091DC010C94821561
:102BD000089560E00C94851561E00C948515CF9301
:102BE000DF93CBEDD1E08881816088831F9281E003
:102BF0008F9381E597E09F938F930E9451070F90E9
:102C00000F900F900F9088818695DF91CF910C9453
:102C1000EC158091DB018695815009F484E261E036
:102C20000C9485158091DB0186958F5F853208F0C5
:102C300081E061E00C948515EBEDF1E083E08083A9
:102C400011828FEF828383831482608171818281FC
:102C500093810C9494145F926F927F928F929F92C3
:102C6000AF92BF92CF92DF92EF92FF920F931F939A
:102C7000CF93DF936DE371E0A6EAB1E0612C01E050
:102C800010E05D018D909C90119711961C921E9200
:102C9000EB018991BE01E82FE295EF70F0E021A1F0
:102CA0008F70A80102C0440F551F8A95E2F7CA0130
:102CB000242B21A322A1542E5094252122A350EA93
:102CC0005A95F1F792E4E92E91E0F92E40E050E0B8
:102CD000E70179907E01272D22952F7030E0E901E0
:102CE00028A1CD90DC90119730E0D72DDF7002C085
:102CF00035952795DA95E2F720FD08C09801042E56
:102D000002C0220F331F0A94E2F702C020E030E035
:102D1000C22AD32A1196DC92CE924F5F5F4F4F307A
:102D20005105B1F691A1D52DD923D1A392A1892B1B
:102D300082A3129681E0F5012081318128153905A1
:102D400009F480E0682AF1E0A03BBF0709F099CFC1
:102D5000662049F081E0809368010E94722B909375
:102D600067018093660180916801882391F18091C9
:102D70006601909167010E94482B069750F180915F
:102D8000A6019091A7019093B7018093B60180911D
:102D9000A8019091A9019093B9018093B801809105
:102DA000AA019091AB019093BB018093BA018091ED
:102DB000AC019091AD019093BD018093BC018091D5
:102DC000AE019091AF019093BF018093BE0110922C
:102DD0006801862DDF91CF911F910F91FF90EF90A9
:102DE000DF90CF90BF90AF909F908F907F906F902B
:102DF0005F900895CF93DF932BE4829FC00111244D
:102E0000FC013FE0739FE00DF11D1124E60FF11D61
:102E1000EE0FFF1FEA5BFE4FC591D491CE01C23881
:102E2000D10549F1B0F4C133D10509F464C048F4C7
:102E3000C932D10509F458C0CA32D10509F462C0BB
:102E400068C0C533D10509F448C0C933D10599F02C
:102E500060C0C33ED10541F138F4C03ED10591F0C8
:102E6000C23ED105B1F055C0C63ED10521F1C73EE5
:102E7000D10561F14EC02091B00120FD46C221FD77
:102E800044C245C22091B00120FF41C289E390E0D5
:102E90003EC22091B00122FF3AC28091B00184FD70
:102EA000E6C183EE90E033C28091B00182FFF5CF9E
:102EB00082EE90E02CC22091B00123FF28C28091C5
:102EC000B00184FDD4C187EE90E021C28091B001B1
:102ED00083FFF5CF86EE90E01AC22091B00125FF66
:102EE00016C289E290E013C22091B00125FF0FC203
:102EF00085E390E00CC22091B00126FF08C28AE26F
:102F000090E005C22091B00126FF01C281E390E06C
:102F1000FEC1C11541E5D40708F047C0C11550E511
:102F2000D50708F03CC1C83ED10520F5C03ED1050B
:102F300008F0EDC1C83AD10570F4C53AD10508F0E2
:102F4000AEC0C130D10509F4E2C108F490C12497A4
:102F500008F48DC1DCC1CF3BD10508F4ABC0C03C47
:102F6000D10508F484C1CE01880F991FFC01E258F5
:102F7000FB4F06C1C11520E3D20788F4C11530E22A
:102F8000D30708F0F6C0C03FD10508F470C1CF3FA9
:102F9000D10511F008F0BBC1CE019065B8C1C115D3
:102FA00040E4D40708F4EFC0F6C0C11559E5D507D1
:102FB00058F5C11588E5D80708F045C1C11524E5C5
:102FC000D20778F4C11533E5D30708F020C1C11545
:102FD00042E5D40708F004C19C2F8827816F906ACE
:102FE00096C1C11555E5D50708F428C1C11586E578
:102FF000D80708F03CC18C2F0E94B0108F7190E070
:10300000982F8827906283C1CD3B2CE5D20709F425
:1030100025C108F5CB3B4CE5D40709F419C108F0EC
:103020001AC1C1158AE5D80708F021C18C2F8F700D
:103030000E94B010FE0194E0F695E7959A95E1F7AD
:10304000EF70F0E0FE2FEE27F06A8F70806E9F0128
:10305000282BC9015CC1C03C2CE5D20709F404C18E
:1030600060F4CE3B4CE5D40709F4FBC0CF3BDC4514
:1030700009F0FDC080E092ED4AC1CE019056811565
:10308000904208F0F4C08D2F8F710E94B010FE01A5
:10309000FF27F0628F71AF01582BCA0138C1C53AC2
:1030A000D10509F4E7C0C63AD10509F0E6C082E8C7
:1030B00090E42DC1C83AD10509F4E2C0C93AD1055E
:1030C00009F4E1C0CA3AD10509F4E0C0CB3AD10510
:1030D00009F4DFC0CC3AD10509F4DEC0CB3BD10501
:1030E00009F4DDC0CC3BD10509F4DCC0CD3AD105F3
:1030F00009F4DBC0C03BD10509F4DAC0CE3AD105F2
:1031000009F4D9C0CF3AD10509F4D8C0C13BD105E3
:1031100009F4D7C0C23BD10509F4D6C0C33BD105E1
:1031200009F4D5C0C43BD10509F4D4C0C53BD105D1
:1031300009F4D3C0C63BD10509F4D2C0C73BD105C1
:1031400009F4D1C0C83BD10509F4D0C0C93BD105B1
:1031500009F4CFC0CD3BD10509F4CEC0CE3BD1059B
:1031600009F4CDC0CA3BD10509F4CCC080E094E499
:10317000CEC0CE019F70FC01EE0FFF1FE250FA4F50
:1031800085919491C4C0CE019927D3FF02C0986C59
:10319000BEC0906CBCC0CE019F70906AB8C0CE011A
:1031A00074E0969587957A95E1F7282F23703C2F48
:1031B000337081E090E002C0880F991F3A95E2F7E2
:1031C0009C68AC01522B9A018C2F8F70E82FE695EA
:1031D000E69550E2E59FC0011124822B932B97C006
:1031E0009E012370332781E090E0AC0102C0440FC0
:1031F000551F2A95E2F79A01EC2FE695E69550E2E5
:10320000E59FC0011124822B932B9C6880C09E01F6
:103210002370332781E090E0AC0102C0440F551FBA
:103220002A95E2F79A01EC2FE695E69550E2E59FA4
:10323000C0011124822B932B9A6869C09C2F882788
:10324000846F906A64C09C2F8827806F906A5FC0EB
:1032500080E094ED5CC080E095ED59C080E091ED98
:1032600056C080E090ED53C080E093ED50C080E008
:1032700090E04DC081E890E44AC083E890E447C004
:1032800082EE94E444C089EE94E441C08AEE94E472
:103290003EC085EB94E43BC086EB94E438C083EBFE
:1032A00094E435C084EB94E432C087EB94E42FC0FF
:1032B0008CEC94E42CC08DEC94E429C083E895E474
:1032C00026C08AE895E423C082E995E420C084E919
:1032D00095E41DC081E296E41AC083E296E417C02B
:1032E00084E296E414C085E296E411C086E296E496
:1032F0000EC087E296E40BC08FE694E408C080E736
:1033000094E405C08AE296E402C080EE90E0DF918A
:10331000CF9108951F920F920FB60F9211242F9301
:103320003F934F935F936F937F938F939F93AF934D
:10333000BF93EF93FF938091A4019091A501019613
:1033400068EB75E00E945A2F9093A5018093A40129
:103350006BE070E00E945A2F6F778091A30182305A
:1033600019F4603451F404C0813039F46F3729F412
:1033700080916F008E7F80936F00E62FF0E0E2581F
:10338000FA4FE49121E031E0E29FC001E39F900D0C
:10339000112463E070E00E945A2F80918402869588
:1033A000282F269FC001279F900D11240E94D31023
:1033B00090938D0080938C00FF91EF91BF91AF911E
:1033C0009F918F917F916F915F914F913F912F913D
:1033D0000F900FBE0F901F901895843030F481111C
:1033E00005C090918000977F04C083E09091800099
:1033F000986090938000282F30E0AFEFBFEF0E94DD
:10340000AA2F23E030E040E050E00E94822FC90163
:103410000E94D31090938D0080938C00089583E1D7
:1034200090E00E94FE2E6093770270937802809362
:10343000790290937A0260FF1FC08091DB01816066
:103440008093DB011F9281E08F9385E495E09F9349
:103450008F930E9451078091DB0186950E94E915A8
:103460004FEF6FEF8AEA0E9482150F900F900F9036
:103470000F9081E00C94E91508959FB7F89410928D
:10348000E3019FBF9091F301943009F057C09091F0
:10349000E9009F703091EC00232F217030FD20E86F
:1034A000922B23E02093E9002091EB0020FF43C002
:1034B0002091EE0027FF3FC02091A201222321F09E
:1034C0002091E80025FF37C01092A20126E030913C
:1034D000E80035FD15C03091F301343061F53091CD
:1034E000EB0035FD28C0215021F481E08093A2013A
:1034F00022C0EFE9FFE03197F1F700C00000E7CF0D
:103500008093F1008091E80085FD0AC08091E80079
:1035100080FFFCCF8091E8008E778093E80006C0A2
:103520008FB7F89421E02093E3018FBF9F709093B1
:10353000E90080E008959F709093E9008FEF08956F
:103540002091E4003091E50095E64091EC00842F55
:10355000817040FF23C08091E80080FD1DC08091F4
:10356000F301882399F0853099F08091EB0085FD77
:1035700011C04091E4005091E5002417350729F36C
:10358000915011F09A01E1CF84E0089582E008950E
:1035900083E0089581E0089580E008954091E80077
:1035A00042FFDDCF08958091F50187FF11C0809122
:1035B000E80082FD05C08091F3018111F8CF11C0B0
:1035C0008091E8008B770BC08091F301882349F04C
:1035D0008091E80080FFF8CF8091E8008E7780939B
:1035E000E8000895982F973068F59093E9009817B0
:1035F00039F07091EC002091ED005091F00003C083
:10360000242F762F50E021FD02C09F5FECCF309138
:10361000EB003E7F3093EB003091ED003D7F309327
:10362000ED003091EB0031603093EB007093EC00D3
:103630002093ED005093F0002091EE0027FDE5CFA0
:1036400080E008958F708093E90081E008952091D3
:10365000FB013091FC012617370748F06115710511
:1036600039F42091E8002E772093E80001C0B901D9
:10367000FC0120E06115710579F18091F301882347
:10368000F1F18530F1F18091E80083FD3CC080913B
:10369000E80082FD2EC08091E80080FFEBCF2091F2
:1036A000F3008091F20090E0922B6115710551F0CA
:1036B0008830910538F421912093F100615071090F
:1036C0000196F3CF21E0089709F020E08091E8000F
:1036D0008E778093E800CECF2111CFCF0AC08091A2
:1036E000F301882361F0853061F08091E80083FD6B
:1036F0000AC08091E80082FFF2CF80E0089582E066
:10370000089583E0089581E008958091E201811198
:1037100007C08091F301843011F081E0089582E0C8
:103720000895CF93DF93CDB7DEB72B970FB6F894FC
:10373000DEBF0FBECDBF84B7877F84BF0FB6F894BE
:10374000A89580916000886180936000109260006D
:103750000FBE80E8809361001092610085B7806899
:1037600085BF85B7806885BF0E9408230E942723F4
:103770008091E20084608093E2008DE39AE190936F
:1037800061018093600178948091F3018823A1F016
:103790001091E9001F709091EC00892F817090FDCD
:1037A00080E8182B1092E9008091E80083FD0E94C8
:1037B000EB1F1F701093E90082E084BD93E095BD7C
:1037C0009AEF97BD80936E00ADE3B1E041E050E029
:1037D0008D91E82FE295EF70F0E091A18F709A0142
:1037E00001C0220F8A95EAF7822F8095892381A351
:1037F00021E0A234B20761F7A2E4B1E041E050E079
:103800008D91E82FE295EF70F0E021A18F70BA0161
:1038100002C0660F771F8A95E2F7CB01962F90952D
:10382000922391A392A1892B82A371E0A135B707BE
:1038300039F7E6EAF1E0A6EBB1E0119211921D92A0
:103840001D9281E0E03BF807C1F70E94662C8111D0
:1038500002C00E94712C279A2F988AE080938000E2
:1038600089E1809381008FEF9FEF90938700809391
:1038700086000E94DC2C1092A5011092A4011092E7
:10388000A30180916F00816080936F000E940F1AE6
:103890000E94662C811102C00E94712C82E090E08F
:1038A0000E94F62E8093CA0184E090E00E94F62EDA
:1038B00090E09093B1018093B00183E090E00E948A
:1038C000F62E682F70E080E090E00E94B8260E94FB
:1038D000DC2C8091B2018111DDC08091CA01816030
:1038E0008093CA0189E59AE09F938F930E945107C4
:1038F0008091CA010F900F9080FF08C083E49AE086
:103900009F938F930E9451070F900F900E94662CF7
:10391000811110C08091CA0180FF08C08BE19AE03C
:103920009F938F930E9451070F900F900E94712CCC
:103930000E941C1688E090E00E94FE2E6093DB013E
:103940007093DC018093DD019093DE016E7FD1F4F2
:103950008091CA0180FF08C082ED99E09F938F9308
:103960000E9451070F900F900E941C1688E090E073
:103970000E94FE2E6093DB017093DC018093DD01D9
:103980009093DE010E9481148091CA0180FF08C0DB
:103990008BEB99E09F938F930E9451070F900F90AC
:1039A0008091CA0180FF0FC08091DB0181701F925E
:1039B0008F938EE999E09F938F930E9451070F9008
:1039C0000F900F900F908091CA0180FF0FC08091DF
:1039D000DB0186951F928F9383E899E09F938F93E5
:1039E0000E9451070F900F900F900F908091CA0185
:1039F00080FF0EC08091DC011F928F9389E699E0D1
:103A00009F938F930E9451070F900F900F900F90EC
:103A10008091CA0180FF0EC08091DD011F928F93BB
:103A20008FE499E09F938F930E9451070F900F901E
:103A30000F900F908091CA0180FF0EC08091DE012F
:103A40001F928F9385E399E09F938F930E94510774
:103A50000F900F900F900F908091CA0180FF0EC0C1
:103A60008091DF011F928F9389E199E09F938F935B
:103A70000E9451070F900F900F900F901092E1014C
:103A80008091DB0180FF03C086950E94E91581E0EB
:103A90008093B2010E940F1A8DE091E09093B401DF
:103AA0008093B30187EC9AE00E94B8068091F301FD
:103AB000853009F043C083EC9AE00E94B8068091FB
:103AC000F301843039F11092B50120E488E190E0EF
:103AD0000FB6F894A895809360000FBE2093600005
:103AE00080E00E94ED1983B7817F846083BF83B734
:103AF000816083BF7894889583B78E7F83BF0FB62C
:103B0000F894A8958091600088618093600010927D
:103B100060000FBE8091F201882309F4C7CF0E9494
:103B20002B1680EC91E0E6EBF1E021913191232B13
:103B300009F00BC28E179F07C1F7B8CF0E942B1652
:103B40009BEC492E91E0592E26EB622E21E0722E3D
:103B500000E010E00B87F301A190B1903F01F2016A
:103B6000C190D1902F01CA24DB24C114D104B1F437
:103B70000F5F1F4F0530110569F78FEF8E838F831D
:103B800018860E94722B8160782F9A8789874E81D0
:103B90005F8168858A850E940F117DC08091CA016E
:103BA00081FD03C080E090E047C080E89AE00E9479
:103BB000B80686EB882E81E0982EE12CF12CFF923E
:103BC000EF922BE73AE03F932F930E94510788E74B
:103BD0009AE00E94B806F40180812180F2E08F0E05
:103BE000911C0E94FB2C382E822D0E94FB2C232D31
:103BF00030E0322F2227A901482BCA019F938F93CF
:103C000062E77AE07F936F930E94510780E79AE022
:103C10000E94B8069FEFE91AF90A0FB6F894DEBFC2
:103C20000FBECDBFF5E0EF16F10449F6BBCF01960C
:103C30008F30910509F49CCFEE24E394F12C082EEB
:103C400002C0EE0CFF1C0A94E2F796012E213F21E0
:103C5000232B69F389832B852A83AE20BF2081E043
:103C6000AB2809F480E08B830E94722B8160782F4F
:103C70009D838C8349815A816B818D810E940F11B4
:103C8000000F111FF801E553FE4F80819181E82656
:103C9000F926F182E0828091C7019091C8010E94CB
:103CA000482BAC019091C601911103C02CE231E088
:103CB00002C022E330E04217530708F478C0809135
:103CC000C2011091C30181110BC0111154C1209187
:103CD000C401211150C12091C50121114CC167C0FF
:103CE0009F3F19F09F5F9093C601181624F40E941D
:103CF0009A2A8093C2018091C20187FF05C00E9469
:103D00009A2A81958093C201111624F40E949A2A5E
:103D10008093C3018091C30187FF05C00E949A2A46
:103D200081958093C3013091C2013323E1F020914A
:103D3000C3012223C1F045EB3403C00111249923B0
:103D400019F09093C20103C081E08093C20155EB4A
:103D50002503C0011124992319F09093C30103C0D6
:103D600081E08093C3018091C401181624F40E945D
:103D7000782A8093C4018091C40187FF05C00E9406
:103D8000782A81958093C4018091C501181624F486
:103D90000E94782A8093C5018091C50187FF05C0E4
:103DA0000E94782A81958093C5010E947E2B0E94F3
:103DB000D9119091C901891739F10E94D911182F91
:103DC0008093C9018091CA0182FF1EC080FF04C098
:103DD0008EE99AE00E94B8068091CA0180FF0CC06B
:103DE0001F921F9389E99AE09F938F930E94510736
:103DF0000F900F900F900F908091CA0180FF04C028
:103E000087E99AE00E94B8068091E101882309F4CD
:103E10004DCE8091E001E091DB01E695E81BE09357
:103E2000D701823059F4F0E0E154F54FE4910E2FC0
:103E300010E0E5E6EE2EE4E1FE2E59C0863059F49E
:103E4000F0E0E454F54FE4910E2F10E075E5E72E15
:103E500074E1F72E4CC0893061F4E695F0E0E75448
:103E6000F54FE4910E2F10E060ECE62E63E1F62EA4
:103E70003EC08F3061F4E695F0E0EA54F54FE491EE
:103E80000E2F10E050E6E52E53E1F52E30C08531BF
:103E900059F4F0E0ED54F54FE4910E2F10E042E1BB
:103EA000E42E43E1F42E23C08831A1F0833249F49B
:103EB000E1EBFAE0059114913BEFE32E33E1F32EB1
:103EC00016C0843271F404EF11E025EAE22E22E1FB
:103ED000F22E0DC008EE13E09FEDE92E92E1F92ECF
:103EE00006C000ED17E08FE0E82E80E1F82E80910B
:103EF000D801882389F01092D8010E94722B980172
:103F000020953095820F931F9093D6018093D50111
:103F10001092DA011092D9018091D5019091D601C9
:103F20000E94482B8017910708F4C0CDE091D5017D
:103F3000F091D6010E0F1F1F1093D6010093D501EB
:103F400085ED91E0F7010995B1CD80E189BD82E170
:103F500089BD09B400FEFDCF8091D8008F7D80938C
:103F6000D8008091E00082608093E0008091E000C2
:103F700081FDFCCF9BCD9F3F09F0B4CEC5CEEF9223
:103F8000FF920F931F93CF93DF937C018B010E94CD
:103F9000A01A811119C0E70101151105A1F0809146
:103FA000E80085FD0AC08091E8008E778093E800E4
:103FB0000E94A01A882381F307C089918093F100A1
:103FC00001501109E9CF80E0DF91CF911F910F914E
:103FD000FF90EF9008951F93CF93DF93CDB7DEB797
:103FE000AA970FB6F894DEBF0FBECDBFE5EFF1E0A4
:103FF0008DEF91E02091F10021938E179F07D1F76B
:104000008091F601833009F460C030F4813071F0A2
:10401000823009F49CC0B3C08A3009F488C08B3068
:1040200009F46BC0893009F0AAC020C08091F50165
:10403000813A09F0A4C08091E800877F8093E8006E
:104040008091F9019091FA01892B21F468E089EEC1
:1040500091E003C060E080E090E070E00E94271BE8
:104060008091E8008B778093E80089C08091F5010A
:10407000813209F084C08091F9019091FA01029790
:1040800008F07DC08091E800877F8093E8008091F0
:10409000E80082FD05C08091F3018111F8CF6FC067
:1040A0002091F3008091F20090E0922B029729F486
:1040B0008091F1008B7F813021F48091F100809319
:1040C000E8018091E8008B7756C08091F501813A34
:1040D00009F055C08091F9019091FA01892B09F0FE
:1040E0004EC08091E800877F8093E8008091E800CF
:1040F00080FFFCCF8091170139C08091F50181329A
:10410000F1F58091F9019091FA01892BC1F5809127
:10411000E800877F8093E8000E94D31A8091F7011E
:10412000809317011092E6010E94572D28C08091BC
:10413000F501813221F58091E800877F8093E800C6
:104140000E94D31A8091F8018093E70118C08091F2
:10415000F501813AA1F48091E800877F8093E8001F
:104160008091E80080FFFCCF8091E7018093F1000F
:104170008091E8008E778093E8000E94D31A8091A6
:10418000E80083FFE3C18091F5019091F601492F8A
:1041900050E04A30510508F0D9C1FA01E557FF4F08
:1041A0000C94A42F803821F0823809F0CFC108C0C8
:1041B0008091F1019091F201992389F082600FC002
:1041C0008091F9018F70873008F0C0C18093E900B9
:1041D0008091EB0085FB882780F91092E90090918F
:1041E000E800977F9093E8008093F1001092F1002F
:1041F0007BC1282F2D7F09F0A9C1882319F08230B7
:1042000061F0A4C18091F701813009F09FC1933022
:1042100009F080E08093F2012EC08091F7018111B6
:104220002AC08091F9018F702FEF280F263008F0F7
:104230008DC18093E9002091EB0020FF1CC09330DA
:1042400021F48091EB00806214C09091EB009061AA
:104250009093EB0021E030E0A90102C0440F551F0C
:104260008A95E2F74093EA001092EA008091EB0011
:1042700088608093EB001092E9008091E800877FCE
:104280008093E8000E94D31A61C181115FC110912F
:10429000F7011F778091E3008078812B8093E30002
:1042A0008091E800877F8093E8000E94D31A809174
:1042B000E80080FFFCCF8091E30080688093E300FA
:1042C000111102C082E001C083E08093F3013EC17E
:1042D0008058823008F03AC12091F7013091F801FE
:1042E0002C3D53E0350779F583E08A838AE28983A0
:1042F0004FB7F894DE01139620E03EE051E2E32F41
:10430000F0E050935700E49120FF03C0E295EF7076
:104310003F5FEF708E2F90E0EA3010F0C79601C03B
:10432000C0968D939D932F5F243149F74FBF8091A5
:10433000E800877F8093E8006AE270E0CE01019692
:104340000E94271BC0C08091F9019091FA01432F70
:10435000552743305105B1F068F44130510509F457
:1043600004C14230510509F0F1C08BE590E0E3ED66
:10437000FBE057C04132510589F14232510509F441
:104380003CC0E4C0C901992781309105B9F070F0B3
:1043900082309105D9F0039709F0D8C0E0E4FCE041
:1043A000E4918E2F90E0E0E4FCE038C0EEE5FCE024
:1043B000E4918E2F90E0EEE5FCE030C0E4E5FCE017
:1043C000E4918E2F90E0E4E5FCE028C0E6E4FCE018
:1043D000E4918E2F90E0E6E4FCE020C0833091056C
:1043E00008F0B4C0880F991FFC01E65AFE4F0190F7
:1043F000F081E02D89E090E014C08330910508F051
:10440000A5C0FC01EE0FFF1FEC5AFE4F0190F0819A
:10441000E02DDC01AF5ABE4F8C9190E0009709F47B
:1044200095C02091E800277F2093E8002091FB01B0
:104430003091FC012817390708F4C90140E00097C2
:1044400089F12091F301222309F43DC02530D9F1EF
:104450002091E80023FD37C02091E80022FD2FC005
:104460002091E80020FFEBCF4091F3002091F20073
:1044700030E0342B009759F02830310540F4449156
:104480004093F100319601972F5F3F4FF3CF41E00A
:104490002830310509F040E02091E8002E77209384
:1044A000E800CDCF4111CDCF0AC08091F301882320
:1044B00051F0853041F08091E80083FD04C0809187
:1044C000E80082FFF2CF8091E8008B778093E800CC
:1044D0003DC08038D9F58091E800877F8093E8005F
:1044E0008091F4018093F1008091E8008E77C8CE2E
:1044F00081112CC08091F7019091F80199270297C2
:104500002CF58091E800877F8093E8001091F701F7
:104510001093F4010E94D31A111106C08091E30098
:1045200087FD02C081E001C084E08093F30142E096
:1045300061EC81E00E94F21A42E261EC82E00E94AA
:10454000F21A42E261EC83E00E94F21A8091E800E4
:1045500083FF10C08091E800877F8093E8008091FE
:10456000EB0080628093EB0005C082E190E0EEE218
:10457000FCE057CFAA960FB6F894DEBF0FBECDBFB2
:10458000DF91CF911F9108951F920F920FB60F9256
:1045900011242F933F934F935F936F937F938F9348
:1045A0009F93AF93BF93CF93DF93EF93FF93C0910C
:1045B000E900CF708091EC00D82FD17080FDD0E859
:1045C0001092E9008091F000877F8093F00078944A
:1045D0000E94EB1F1092E9008091F00088608093A8
:1045E000F000CD2BCF70C093E900FF91EF91DF91E8
:1045F000CF91BF91AF919F918F917F916F915F917B
:104600004F913F912F910F900FBE0F901F901895D3
:10461000E8EDF0E080818E7F80831092E2001092BE
:10462000DA001092E100A0EEB0E08C9181608C93F2
:1046300080818F77808319BCA7EDB0E08C918E7F4D
:104640008C9380818F7E80831092E5010895CF92B4
:10465000DF92EF92FF920F931F93CF93DF93C8EDFA
:10466000D0E088818F7E8883E7EDF0E080818160F3
:10467000808384E082BF81E08093E50188818E7F22
:10468000888302EE10E0F80110821092DA0081EEC9
:10469000C82ED12CF601108288818F77888388817B
:1046A0008068888388818F7D888319BC1092F3018C
:1046B0001092F4011092F2011092F10190EEE92EA5
:1046C000F12CF70180818B7F8083888181608883D2
:1046D00042E060E080E00E94F21AF60180818E7F65
:1046E0008083F801808181608083808188608083FD
:1046F000F70180818E7F8083888180618883DF914C
:10470000CF911F910F91FF90EF90DF90CF90089580
:104710001F920F920FB60F9211242F933F934F9336
:104720005F936F937F938F939F93AF93BF93EF9319
:10473000FF938091E10082FF49C08091E20082FFF7
:1047400045C08091E1008B7F8093E1002091E401DE
:104750002F5F822F62E30E944E2F992319F020933E
:10476000E40134C01092E4018091E301882371F1E7
:104770008091F301843041F58091E9008F702091A0
:10478000EC00922F917020FD90E8892B93E090939C
:10479000E9009091EB0090FF14C09091EE0097FF1C
:1047A00010C09091E80095FF03C01092F100F9CF7E
:1047B0009091E80090FF05C09091E8009E7790935B
:1047C000E8008F708093E9001092E3018091DA0095
:1047D00080FF32C08091D80080FF2EC08091DA0027
:1047E0008E7F8093DA008091D90080FF1CC080E129
:1047F00089BD82E189BD09B400FEFDCF81E08093CF
:10480000F3018FEB9BE00E94B8068091E5018111D6
:1048100013C00E9408230E9427238091E200846035
:104820008093E20009C019BC1092F30183EC9BE075
:104830000E94B8061092E5018091E10080FF1BC044
:104840008091E20080FF17C08091E2008E7F80930C
:10485000E2008091E20080618093E2008091D800C4
:1048600080628093D80019BC85E08093F30187ECC7
:104870009BE00E94B8068091E10084FF3AC08091DD
:10488000E20084FF36C080E189BD82E189BD09B4C0
:1048900000FEFDCF8091D8008F7D8093D80080915D
:1048A000E1008F7E8093E1008091E2008F7E809313
:1048B000E2008091E20081608093E2008091F40147
:1048C000882311F084E007C08091E30087FD02C0D7
:1048D00081E001C083E08093F3018BEC9BE00E94B8
:1048E000B8061092E6010E94572D0E94DC2C0E940F
:1048F000D9118091E10083FF2BC08091E20083FFFA
:1049000027C08091E100877F8093E10082E080935F
:10491000F3011092F4018091E1008E7F8093E10019
:104920008091E2008E7F8093E2008091E2008061BE
:104930008093E20042E060E080E00E94F21A809101
:10494000F00088608093F0008FEC9BE00E94B80636
:10495000FF91EF91BF91AF919F918F917F916F9157
:104960005F914F913F912F910F900FBE0F901F902D
:104970001895EF92FF920F931F93CF939091E601BA
:1049800080917502892B20917402982F922B90931D
:10499000FD0180917602882389F0892B8093FD01A7
:1049A000EFEFF1E097E080E0915029F02191222390
:1049B000D9F38F5FF9CF81110E940D2DE091B301E2
:1049C000F091B4013097C9F10280F381E02D8DEFB1
:1049D00091E009958091CA0182FF2FC080FF04C039
:1049E0008AE69CE00E94B8060DEF11E0C8E084E67C
:1049F000E82E8CE0F82E8091CA0180FF0CC0F801EF
:104A000080811F928F93FF92EF920E9451070F9027
:104A10000F900F900F90C1500F5F1F4FC111EBCF40
:104A20008091CA0180FF09C082E69CE0CF911F916E
:104A30000F91FF90EF900C94B806CF911F910F91BA
:104A4000FF90EF900895BF92CF92DF92EF92FF9286
:104A50000F931F93CF93DF938C01C0906F02D09080
:104A60007002E0907102F090720280917B0290914E
:104A70007C02A0917D02B0917E02C82AD92AEA2A3E
:104A8000FB2ACFE1D0E0D701C6010C2E04C0B695B9
:104A9000A795979587950A94D2F780FD04C0219732
:104AA00090F7B12C07C0BC2EB8018C2F0E94FA16CB
:104AB0000197A9F38B2DDF91CF911F910F91FF905B
:104AC000EF90DF90CF90BF900895CF93DF93EC01EC
:104AD0000E942325BE010E94FA16DF91CF9108950E
:104AE0002FE0929F800D1124682F6695669566953C
:104AF000982F977085E0689FB001112440E050E046
:104B000080E0FB01E40FF51FE35CFD4F208130E006
:104B1000092E02C0369527950A94E2F721703327B3
:104B2000042E01C0220F0A94EAF7822B4F5F5F4FD9
:104B30004530510531F708952FE0929F800D1124E3
:104B4000E82FE695E695E695877051E001C0550F90
:104B50008A95EAF785E0E89FF0011124E35CFD4FB8
:104B600020E030E070E04081CB01022E02C096953B
:104B700087950A94E2F7817081958427852384279D
:104B800081932F5F3F4F2530310569F70895CF920C
:104B9000DF92EF92FF920F931F936B017C01AC01A8
:104BA00066277727411551056105710511F080E1F0
:104BB00003C0B701A60180E0052F162F272F33274A
:104BC000011511052105310519F0885FB901A8010A
:104BD0008A019B01F4E03695279517950795FA957C
:104BE000D1F7011511052105310519F08C5FB901C7
:104BF000A8018A019B01E2E0369527951795079554
:104C0000EA95D1F7011511052105310519F08E5FDF
:104C1000B901A8017695679557954795452B462B81
:104C2000472B09F08F5F909177028230B9F028F41A
:104C3000882341F0813061F022C08330A9F08430B4
:104C4000C1F01DC090FF25C04FEF6FEF8AEA1CC076
:104C500090FF1FC04FEF6FEF80E416C090FF19C0A8
:104C60004FEF60EB8BE010C090FF13C04FEF6FEF82
:104C70000AC090FF0EC04FEF6FEF8CE105C090FFB0
:104C800008C04FEF60E080E00E94821581E00E9442
:104C9000E915C0926F02D0927002E0927102F09218
:104CA00072021F910F91FF90EF90DF90CF900C94C4
:104CB0003C2D0F931F9341E050E060E070E004C092
:104CC000440F551F661F771F8A95D2F74095509560
:104CD0006095709580916F0290917002A091710221
:104CE000B09172028A019B01082319232A233B23D6
:104CF000C901B8011F910F910C94C725209173022F
:104D00008095822380937302982F977079F430E016
:104D1000482F082E000C550B2417350739F08595C0
:104D2000859585950E9459261092730208950F93D8
:104D30001F9341E050E060E070E004C0440F551F55
:104D4000661F771F8A95D2F780916F02909170024B
:104D5000A0917102B09172028A019B01082B192B5C
:104D60002A2B3B2BC901B8011F910F910C94C72529
:104D700060937B0270937C0280937D0290937E020D
:104D80000C943C2D80913C0290910B02891719F0F4
:104D90008F5F8770FBCF0895CF9380910A02829531
:104DA0008F7009F05FC080910702882309F45AC010
:104DB00080913C02B0910B0270910502A091060215
:104DC000409108025091090291E07F3F09F090E084
:104DD000692FC6E08B1709F445C04115510521F034
:104DE000AF3F21F020E003C021E001C0262F90E07A
:104DF00020FD35C0C89FF001C99FF00D1124E45F6C
:104E0000FD4F21812A132BC02081271328C0228126
:104E1000211125C0238134812417350710F4215036
:104E20003109241B350B283C3105C8F420910A02B6
:104E30002F70206120930A0226E0289FF001299F0D
:104E4000F00D1124EF5EFD4F80818F7080618083B3
:104E500085E092E00E945A07CF910C94C2260196F9
:104E60008770B8CFCF910895AF92BF92CF92DF9263
:104E7000EF92FF920F931F93CF93DF93CDB7DEB7DF
:104E800061970FB6F894DEBF0FBECDBF8C0185E0F1
:104E9000F801DE011D9601900D928A95E1F7D80187
:104EA0003C9111962C9111971296EC90509105021D
:104EB000609106028091080290910902009731F0FA
:104EC0006F3F31F441E05F3F19F403C041E001C09E
:104ED00040E0B42FB170BB2E40FD43C1F801C38048
:104EE000D480A0900702AA2009F4E2C040910A02EF
:104EF000C816D90628F0D601A81BB90BCD0104C0ED
:104F0000809590958C0D9D1DFF24F394883C910510
:104F100048F0F12C407F09F090C085E092E00E94BB
:104F20005A0717C1842F807F09F052C0621312C044
:104F3000531310C0FE2CE1100DC04F704061409320
:104F40000A0285E092E00E945A0780910A02F80165
:104F5000858348C1CD2831F02F3F31F481E03F3FB8
:104F600019F403C081E001C080E080FD03C081E04E
:104F70008E2502C080E090E0F82FF170FF2E80FFB8
:104F80001CC080913C0240910B0256E0841709F44A
:104F900006C190E0589FF001599FF00D1124E45F85
:104FA000FD4F6181261306C06081361303C0628104
:104FB000E61203C001968770E9CFFE2CEE2009F4BB
:104FC00011C180910A02816080930A02F12C0AC10A
:104FD000621308C0531306C0E11004C080910A0296
:104FE000F80199C03D872E878D859E850E94132DDF
:104FF000882369F1EE2059F120910A02822F8295CF
:105000008F7090E0029774F08091050290910602F3
:1050100098878F831986DB86CA862C87CE010796F0
:105020000E945A0786E0F801A5E0B2E001900D92D7
:105030008A95E1F70E94CC260DC0621771F03D877A
:105040002E878D859E850E94132D81111AC0C8015F
:105050000E945A07FF24F394C5C05313F0CFE11008
:10506000EECF80910A02F8018583C8010E945A0799
:1050700086E0E5E0F2E0DF011D928A95E9F7FA2C7F
:10508000B1C0EE2021F320910A02822F82958F7009
:1050900090E002973CF280910502909106029A837B
:1050A00089831B82DD82CC822E83CE010196B8CF0C
:1050B000C816D90638F0C81AD90AB8ECCB16D104EC
:1050C00050F007C0809590958C0D9D1D883C9105F2
:1050D00010F0F12C3EC0FE2CEE2009F4B8CF621384
:1050E00027C0531325C020910A0220FD18C0822F2B
:1050F00082958F70482F50E04115510581F0F801DD
:1051000025834F30510541F08F5F982F9295907F06
:10511000822F8F70892B8583C8010E945A0786E0F1
:10512000F801A5E0B2E001900D928A95E1F75AC02E
:105130003D872E878D859E850E94132D811172CF0C
:1051400080910A02816080930A02C8010E945A0776
:1051500049C0E5E0F2E086E0DF011D928A95E9F7BB
:1051600041C0EE2009F473CF3D872E878D859E8543
:105170000E94132DF82E882309F469CF86E0F801E8
:10518000A5E0B2E001900D928A95E1F780910502C9
:10519000909106020E9465250E94CC2623C03D877F
:1051A0002E878D859E850E946525292F22952F703B
:1051B000223028F49F7039F0811105C00BC02430D3
:1051C00028F49F7049F4805E883020F0C8010E9466
:1051D0005A07BF2CFB2C06C0D80115969C91907FD6
:1051E00091F7F8CF8F2D61960FB6F894DEBF0FBE02
:1051F000CDBFDF91CF911F910F91FF90EF90DF9086
:10520000CF90BF90AF9008958091E8010895CF931B
:10521000DF9300D01F92CDB7DEB72091F301243089
:1052200031F523E02983805891099B838A8382E0AA
:105230008093E9008FEF9091E800815095FD06C0C2
:1052400095ED9A95F1F700008111F5CF8091E80076
:1052500085FF0DC040E050E063E070E0CE010196B4
:105260000E94BF1F8091E8008E778093E8000F9026
:105270000F900F90DF91CF9108950F931F93CF93CD
:10528000DF9300D01F92CDB7DEB78C010E94851B43
:10529000823011F0843021F584E089831B830A83F6
:1052A00082E08093E9008FEF9091E800815095FDB6
:1052B00006C095ED9A95F1F700008111F5CF809128
:1052C000E80085FF0DC040E050E063E070E0CE01F3
:1052D00001960E94BF1F8091E8008E778093E800BE
:1052E0000F900F900F90DF91CF911F910F91089524
:1052F000CF93DF93EC010E94851B823011F0843044
:10530000F9F482E08093E9008FEF9091E8008150FA
:1053100095FD06C095ED9A95F1F700008111F5CF46
:105320008091E80085FF0CC040E050E066E070E04E
:10533000CE010E94BF1F8091E8008E778093E80025
:10534000DF91CF910895CF93DF93EC010E94851BED
:10535000823011F0843039F581E08093E9008FEFDD
:105360009091E800815095FD06C095ED9A95F1F772
:1053700000008111F5CF8091E80085FF14C040E066
:1053800050E068E070E0CE010E94BF1F8091E8000D
:105390008E778093E80088E0FE01A9EEB1E00190ED
:1053A0000D928A95E1F7DF91CF910895843008F04E
:1053B00083E0880F909184029170892B80938402FE
:1053C0008E7F91E009F490E06091840290FB60F997
:1053D0006093840286E090E00E940A2F809184020C
:1053E00086950C94ED19803F39F48091C30187FFB5
:1053F0006CC01092C30169C0813F29F48091C30140
:105400001816BCF362C09091C201823F29F497FF45
:105410005CC01092C20159C0833F19F41916CCF335
:1054200054C0893F41F48091C40118160CF04DC05E
:105430001092C4014AC08A3F29F48091C40187FFB9
:1054400044C0F6CF8B3F39F48091C50187FF3DC042
:105450001092C5013AC08C3F29F48091C5011816FD
:10546000BCF333C0843F21F48091C1018E7F17C00B
:10547000853F21F48091C1018D7F11C0863F21F4C9
:105480008091C1018B7F0BC0873F21F48091C101C6
:10549000877F05C0883F31F48091C1018F7E809362
:1054A000C10113C08D3F21F4809183028E7F0BC018
:1054B0008E3F21F4809183028D7F05C08F3F29F4B8
:1054C000809183028B7F809383028091C20181113E
:1054D0000EC08091C30181110AC08091C401811165
:1054E00006C08091C501811102C01092C6010895C5
:1054F0008091830280FD16C081FD16C082FD18C018
:105500008091C601882391F0883290F428E0829F30
:10551000C001112468E270E00E946E2F862F672B75
:1055200029F007C082E0089584E0089581E008959D
:1055300088E008958091830280FD14C081FD14C02D
:1055400082FD16C08091C601882381F0843180F4E9
:1055500022E3829FC001112464E170E00E946E2F5B
:10556000862F08958CE0089589E1089585E00895D7
:1055700082E30895803F21F40E949A2A819504C015
:10558000813F29F40E949A2A8093C3010895823FA3
:1055900021F40E949A2A819504C0833F29F40E9435
:1055A0009A2A8093C2010895893F19F40E94782AAB
:1055B00005C08A3F31F40E94782A81958093C40106
:1055C00008958B3F21F40E94782A819504C08C3F76
:1055D00029F40E94782A8093C5010895843F21F41C
:1055E0008091C101816017C0853F21F48091C10184
:1055F000826011C0863F21F48091C10184600BC09C
:10560000873F21F48091C101886005C0883F31F453
:105610008091C10180618093C10108958D3F21F483
:105620008091830281600BC08E3F21F480918302C0
:10563000826005C08F3F29F480918302846080934B
:105640008302089578941F920F920FB60F9211243F
:105650008F939F93AF93BF9380917F02909180022D
:10566000A0918102B09182020196A11DB11D80938B
:105670007F0290938002A0938102B0938202BF9137
:10568000AF919F918F910F900FBE0F901F90189523
:10569000CF92DF92EF92FF920F931F932FB7F89460
:1056A00040917F025091800260918102709182024C
:1056B0002FBF6A017B01EE24FF248C0120E030E043
:1056C000C016D106E206F30610F4415051099A01C2
:1056D000281B390BC9011F910F91FF90EF90DF90AC
:1056E000CF9008952FB7F89480917F029091800217
:1056F000A0918102B09182022FBF08958091CA01CA
:1057000083FF7EC083EA9CE00E94B8068091C101BD
:105710001F928F938EE99CE09F938F930E94510775
:105720008CE99CE00E94B8068091C201282F082EC7
:10573000000C330B3F938F9389E99CE09F938F93E9
:105740000E94510787E99CE00E94B8068091C3013E
:10575000282F082E000C330B3F938F9384E99CE095
:105760009F938F930E94510782E99CE00E94B806A4
:105770008091C401282F082E000C330B3F938F9388
:105780008FE89CE09F938F930E9451078DE89CE0E7
:105790000E94B8068091C501282F082E000C330BFB
:1057A0003F938F938AE89CE09F938F930E945107C9
:1057B00087E89CE00E94B8068091C6011F928F93F3
:1057C00084E89CE09F938F930E94510782E89CE0BD
:1057D0000E94B806809183021F928F938FE79CE00E
:1057E0009F938F930E9451078CE79CE00E94B8061C
:1057F0008DB79EB74C960FB6F8949EBF0FBE8DBF67
:10580000E091B301F091B401309749F082E08093C8
:10581000C0010480F581E02D80EC91E009950E94A3
:10582000722B9093C8018093C70108951F920F9225
:105830000FB60F9211248F939F93AF93BF938091D4
:10584000B501811113C080917F0290918002A091D7
:105850008102B09182024196A11DB11D80937F0209
:1058600090938002A0938102B0938202BF91AF9186
:105870009F918F910F900FBE0F901F9018959C01D4
:105880002A5F3F4FFC014281461301C012820196FC
:1058900082179307B9F708959C01FC0132969FEF98
:1058A00080E04191461789F09F3F19F4411101C0F2
:1058B000982F8F5F8630A9F79F3F39F0F901E90FE4
:1058C000F11D97FDFA9562830895089580E090E0B8
:1058D0000E94042F21E08D3E9E4F09F020E0822F90
:1058E00008956DEE7EEF80E090E00E94282F60E04A
:1058F00082E090E00E940A2F60E083E090E00E9446
:105900000A2F10927B0210927C0210927D0210925C
:105910007E0260E084E090E00E940A2F60E085E073
:1059200090E00E940A2F60E086E090E00E940A2F3B
:105930006FEF87E090E00E940A2F40E050E0BA014C
:1059400088E090E00E941C2F60E08DE090E00E94D3
:105950000A2F40E050E0BA0188E190E00E941C2F3D
:1059600060E087E190E00E940A2F40E050E0BA0139
:105970008FE090E00E941C2F81E01092780210923C
:10598000790210927A0281608093770240917702C7
:10599000509178026091790270917A0283E190E0EF
:1059A0000E941C2F0E94EF154FEF6FEF8AEA0E94B2
:1059B000821581E00C94EC150E94662C811102C0C6
:1059C0000E94712C86E090E00E94F62E8093840263
:1059D000282F269530E02430310524F08170866030
:1059E000809384028091840280FF02C0869501C06A
:1059F00080E00C94ED198295982F937344E0949F66
:105A0000900111248C7C86958695282B822F857594
:105A1000880F2A7A2695822B08958091760281112B
:105A20001092760208950E946525292F2F70E92F84
:105A3000E295EF704E2F50E0FA013297EE30F1050B
:105A4000B8F4EB56FF4F0C94A42F803F99F018F454
:105A5000803E70F40FC0843F59F40CC0803E50F07B
:105A6000813F31F407C0822F8695869586950895EB
:105A700080E0089581E008951092750210927402FA
:105A80000E94B924E0ECF1E086E0DF011D928A95E6
:105A9000E9F71092C601109283020E947E2B80E0EB
:105AA00090E00E94C31180E090E00C94AD1186E07C
:105AB000EFEFF1E0DF011D928A95E9F70C943C2DA0
:105AC000882341F080959091E60189238093E60137
:105AD0000C94B9240895882339F09091E601892B1C
