:100000000C949F050C94E6050C94E6050C94E6050B
:100010000C94E6050C94E6050C94E6050C94E605B4
:100020000C94E6050C94E6050C948F200C94CB1FE1
:100030000C949A280C94E6050C94E6050C94E605BD
:100040000C94E6050C94E6050C94E6050C94E60584
:100050000C94E6050C94A6270C94E6050C94E60592
:100060000C94E6050C94E6050C94E6050C94E60564
:100070000C94E6050C94E6050C94E6050C94E60554
:100080000C94E6050C94E6050C94E6050C94E60544
:100090000C94E6050C94E6050C94E6050C94E60534
:1000A0000C94E6050C94E6050C94E6053F083F0821
:1000B0007C087C08CC08EC08BD0ABD0A2E091A0A87
:1000C0002C0A2C0ADA1D011EAD1F011EAD1F4D1E8C
:1000D000701EAD1F751F841F8222822295229522D9
:1000E0008B2295229522952282228222902295228D
:1000F000952290222900B30023023500340000002D
:100100001B0100004600000000000000000000008D
:100110002A002B0014001A00080015001700060121
:10012000045300001C0018000C00120013003100E2
:10013000390004421662074309610A00190103539A
:1001400000000B000D710E000F7233003400E1004F
:100150001D001B0006001900050000000253650089
:10016000110010003600370052003500E000000F8B
:100170000007E300E2002C002A0001534C00280095
:1001800001513800500051004F0000003A003B0080
:100190003C003D003E000000000000003F00400029
:1001A000410042004300440000001E022E002602CF
:1001B000270231020000000000002D025F006000F5
:1001C0006100570045000000220225022F02300284
:1001D00024020000000000001F025C005D005E00C1
:1001E000560053000000200223022F003000350289
:1001F000000000000000210259005A005B00550079
:100200006700000000000000000000000000000087
:10021000010000000100000062006300540058006B
:10022000CA5CC95C0000C25CC45CC35C0000000026
:100230000000000000000000000000000000C65C9C
:10024000C55C00000000000000000000000000008D
:10025000F9000000F0000000F9000000C85CC75C75
:100260000000000000000000000000000000FA0094
:10027000F200F100F300FA000000CD5CCE5CCF5C30
:10028000D05C000000000000010000000000AA0097
:10029000A800A90000000000D15CD25CD35CD45C53
:1002A000000000000000005300000000AC00AE00A1
:1002B000AB0000000000005C000000000000000037
:1002C000000000000000000000000000000000002E
:1002D000000000000000000000000000000000001E
:1002E0000000000000004B004A0052004D004B008F
:1002F00000000000000000000000000000000000FE
:10030000010000004E00500051004F004E00000060
:1003100000000000000000000000000000000000DD
:1003200000000000000000000000000000000000CD
:10033000000000000000000000000000005300006A
:1003400000000000000000000000000035001E005A
:100350001F002000210022004600000000002300B2
:1003600024002500260027002A002B0014001A0074
:10037000080015001700000001004B001C001800C9
:100380000C0012001300310039000400166207004F
:1003900009610A00000000004E000B000D000E0075
:1003A0000F0033003400E1001D001B00060019009F
:1003B00005000000000000001100100036003700AA
:1003C00052002900E0000000E3000000E2002C00E1
:1003D000000000000000E000000038005000510064
:1003E0004F007267626C6967687420646973616248
:1003F0006C65205B454550524F4D5D3A20726762F7
:100400006C696768745F636F6E6669672E656E619D
:10041000626C65203D2025750A007267626C696711
:10042000687420656E61626C65205B454550524F73
:100430004D5D3A207267626C696768745F636F6EC6
:100440006669672E656E61626C65203D2025750AC0
:10045000007267626C6967687420746F67676C65A7
:10046000205B454550524F4D5D3A207267626C6982
:100470006768745F636F6E6669672E656E61626C34
:1004800065203D2025750A0044454255473A2064C1
:10049000697361626C65642E0A0044454255473AAF
:1004A00020656E61626C65642E0A00000000000029
:1004B000000000000001010101010101010102022F
:1004C00002020202020203030303030303040404FF
:1004D00004040505050505060606060607070707C1
:1004E000080808080909090A0A0A0B0B0B0C0C0C6E
:1004F0000D0D0D0E0E0E0F0F101010111112121304
:10050000131414151516161717181819191A1A1B7B
:100510001C1C1D1D1E1F1F202121222323242525D5
:1005200026272828292A2B2C2C2D2E2F303131320A
:10053000333435363738393A3B3C3D3E3F40414213
:10054000434445464748494B4C4D4E4F50525354F7
:10055000555758595A5C5D5E606163646567686AA7
:100560006B6C6E6F7172747677797A7C7D7F818225
:10057000848687898B8D8E9092949597999B9D9F69
:10058000A1A2A4A6A8AAACAEB0B2B4B6B9BBBDBF76
:10059000C1C3C5C8CACCCED0D3D5D7DADCDEE1E33F
:1005A000E6E8EAEDEFF2F4F7F9FCFF7267626C69D6
:1005B0006768742074696D657220656E61626C6530
:1005C000642E0A007267626C69676874206D6F64DC
:1005D00065205B4E4F454550524F4D5D3A20257585
:1005E0000A007267626C69676874206D6F646520C9
:1005F0005B454550524F4D5D3A2025750A007267A4
:10060000626C696768742073657420687376205B18
:100610004E4F454550524F4D5D3A2025752C25755E
:100620002C25750A007267626C69676874207365AF
:100630007420687376205B454550524F4D5D3A20DB
:1006400025752C25752C25750A007267626C696703
:100650006874207261696E626F77207365742068B8
:1006600073763A2025642C25642C25642C25750A84
:1006700000FFAA7F55407267626C696768742074D6
:10068000696D65722064697361626C652E0A00226F
:1006900023252628292A2C2D2F3032333536383A77
:1006A0003B3D3E4042434547494A4C4E50515355CD
:1006B00057595A5C5E6062646668696B6D6F7173EE
:1006C0007577797B7D7F81838587898A8C8E9092EF
:1006D0009496989A9C9E9FA1A3A5A7A8AAACAEAFFA
:1006E000B1B3B4B6B8B9BBBCBEBFC1C2C3C5C6C73F
:1006F000C9CACBCCCDCED0D1D2D2D3D4D5D6D7D7F0
:10070000D8D9D9DADADBDBDBDCDCDCDCDCDDDDDD37
:10071000DDDCDCDCDCDCDBDBDBDADAD9D9D8D7D733
:10072000D6D5D4D3D2D2D1D0CECDCCCBCAC9C7C6E0
:10073000C5C3C2C1BFBEBCBBB9B8B6B4B3B1AFAE1E
:10074000ACAAA8A7A5A3A19F9E9C9A9896949290C4
:100750008E8C8A89878583817F7D7B79777573719C
:100760006F6D6B6968666462605E5C5A5957555379
:1007700051504E4C4A4947454342403E3D3B3A3832
:1007800036353332302F2D2C2A2928262523227264
:1007900067626C696768745F636F6E6669672E7302
:1007A00070656564203D2025640A007267626C698B
:1007B0006768745F636F6E6669672E76616C203D53
:1007C0002025640A007267626C696768745F636FF2
:1007D0006E6669672E736174203D2025640A00727D
:1007E00067626C696768745F636F6E6669672E68BD
:1007F0007565203D2025640A007267686C6967682A
:10080000745F636F6E6669672E6D6F6465203D204F
:1008100025640A007267626C696768745F636F6E53
:100820006669672E656E61626C65203D2025640AED
:10083000007267626C696768745F636F6E66696790
:1008400020454550524F4D3A0A007267626C696705
:1008500068745F696E6974207267626C6967687436
:100860005F636F6E6669672E6D6F6465203D203033
:100870002E2057726974652064656661756C7420FA
:1008800076616C75657320746F20454550524F4DED
:100890002E0A007267626C696768745F696E6974BA
:1008A000206565636F6E666967206973206E6F747B
:1008B00020656E61626C65642E0A007267626C6905
:1008C0006768745F696E6974207374617274210A59
:1008D000007267626C696768745F696E697420632F
:1008E000616C6C65642E0A000A00253031366200A6
:1008F0003A200025303258000A722F6320303132FE
:10090000333435363738394142434445460A000AC4
:100910000025303258006B6579626F6172645F73D5
:1009200065745F6C65643A200000047F3F1F643289
:1009300014643214783C1E1E140A055B735D004B70
:100940006579626F6172642073746172742E0A003B
:100950000631FF0974A1010975150026FF009520D5
:10096000750881020976150026FF0095207508910B
:1009700002C005010902A10185020901A1000509C2
:1009800019012905150025019505750181029501BB
:10099000750381010501093009311581257F950213
:1009A0007508810609381581257F9501750881062E
:1009B000050C0A38021581257F950175088106C04E
:1009C000C005010980A10185031A81002A83001650
:1009D0000100260300950175108100C0050C090176
:1009E000A10185041A01002A9C02160100269C021E
:1009F000950175108100C005010906A101050719BF
:100A0000E029E7150025019508750181029501751A
:100A10000881010507190029FF150026FF0095062A
:100A200075088100050819012905950575019102D0
:100A3000950175039101C05B435D005B445D005B04
:100A4000535D005B575D005B525D0009025B000374
:100A50000100A0FA090400000103010100092111AD
:100A60000100012240000705810308000A09040172
:100A70000001030000000921110100012285000787
:100A800005820320000A0904020002030000000995
:100A90002111010001222200070583032000010724
:100AA0000503032000011201100100000008EDFE03
:100AB00000000100010203010403300000000C03E8
:100AC000690064006F0062006F00000008035900B5
:100AD0006F0075000000040309040A002530325835
:100AE00020006B6579626F6172645F7265706F720E
:100AF000743A2000290A002575002F002575005D35
:100B000028002564002000256400200025640020C2
:100B1000002564007C0025303258006D6F757365C8
:100B20006B6579205B62746E7C7820792076206812
:100B30005D287265702F61636C293A205B00112477
:100B40001FBECFEFDAE0DEBFCDBF04B603FE27C085
:100B500080917D0290917E02A0917F02B0918002EF
:100B60008730904BA740B04BD1F410927D02109289
:100B70007E0210927F021092800214BE84B7877F9B
:100B800084BF0FB6F894A895809160008861809327
:100B90006000109260000FBEE0E0F8E3099511E0FC
:100BA000A0E0B1E0E8E6F7E502C005900D92A036BE
:100BB000B107D9F722E0A0E6B1E001C01D92AD3740
:100BC000B207E1F70E94B6180C94B22B0C94000007
:100BD000FF93EF93E0916001F0916101309709F08C
:100BE0000995EF91FF910895FC018591803011F0F6
:100BF000EFDFFBCF0895FF27E0E230E247FF0CC0B4
:100C0000419597FF09C0EDE26095709580959095AC
:100C1000611D711D811D911D27FF02C0219530E3CB
:100C200050E2AA27660F771F881F991FAA1FA417D3
:100C300010F0A41B63955A95A9F7AA3008F0A95F94
:100C4000A05DAF93F395611571058105910541F79D
:100C5000ED3211F4EF93F395F21718F43F93F395F7
:100C6000FBCF8F91B5DFFA95E1F70895E991F991FE
:100C70008591803021F0853219F0AADFF9CF0895EF
:100C800020E0E89455915532C1F3503311F4689443
:100C900055915A3348F4505390F3220F022E220FED
:100CA000220F200D250FF4CF0EF4219589919991F3
:100CB000533619F3533729F1533559F1BC018827BD
:100CC0009927E8945C3621F489919991689455911B
:100CD000543639F446EF7EF077FF0DC08FEF9FEF6B
:100CE0000AC055374AE039F0583540E121F0523614
:100CF00042E009F00895FF93EF937DDFEF91FF91BC
:100D0000B7CFFF93EF93FC0181918030B9F360DF9F
:100D1000FBCFFF93EF9368DFF1CFDF93CF93CDB796
:100D2000DEB72596A3DFCF91DF9108954F925F92B2
:100D30006F927F92AF92BF92CF92DF92EF92FF922B
:100D40000F931F93CF93DF93CDB7DEB727970FB6DF
:100D5000F894DEBF0FBECDBFFC01D080118183812E
:100D60009481892B09F453C71F3F21F40FEFD0164C
:100D700009F44DC77F0185E0DE01119601900D92C7
:100D80008A95E1F7F701228189819A81222349F02E
:100D90000E942622082F682F89819A810E94C522ED
:100DA00003C00E949922082F2FE0129FF001112406
:100DB0003BE4039FE00DF11D1124ED0DF11DEE0F3D
:100DC000FF1FEC50FF4F05911491003F8CE5180771
:100DD000C1F180F4083DECE51E07C9F0093DFCE5D2
:100DE0001F07D9F1073D2CE51207D1F526E241EEA8
:100DF00061EE10C0023F3CE5130759F130F1033FAB
:100E00009CE5190769F527E245EE66EE03C027E287
:100E100045EE65EEC70127960FB6F894DEBF0FBE0C
:100E2000CDBFDF91CF911F910F91FF90EF90DF9099
:100E3000CF90BF90AF907F906F905F904F900C9449
:100E4000CF0F26E241EE60EEE5CF27E245EE64EEFD
:100E5000E1CF26E241EE62EEDDCF28E241E0D9CFDC
:100E6000F7018281882309F482C0109262010B3C51
:100E7000FCE51F0709F420C508F03FC0033C3CE532
:100E8000130709F4A1C4E8F40631ECE51E0778F471
:100E90000230FCE51F0708F08CC501152CE5120790
:100EA00009F4B4C301301C4509F4E1C3A8C00631FC
:100EB0009CE5190709F46EC0023C1C4509F413C4F3
:100EC0009EC0073CFCE51F0709F4C4C440F4053C80
:100ED0003CE5130709F4ACC408F490C4B2C4093C5F
:100EE0009CE5190709F4C0C408F0C5C46091DA0193
:100EF00028E0621B08F460E0B3C4033DFCE51F0773
:100F000009F42FC5B0F40F3C3CE5130709F409C5FB
:100F100040F40D3C9CE5190709F4F9C408F4D2C467
:100F2000F8C4013DFCE51F0709F40BC508F401C531
:100F300010C50D3D3CE5130709F437C560F4053DC8
:100F40009CE5190709F417C508F40DC50C3D1C45AF
:100F500009F428C554C00E3D2CE5120709F4ADC3B1
:100F6000C801875F9C45079708F423C548C0063D24
:100F7000FCE51F0708F040C3023C2CE5120708F00F
:100F800046C606313CE5130708F42CC306311C4560
:100F900009F035C69091E301882381F09A7A81E0C7
:100FA00009F480E080936301811102C069E201C00D
:100FB00065E38AEF91E00E94CF280BC08091630126
:100FC000811102C069E201C065E38AEF91E00E94ED
:100FD000C32827960FB6F894DEBF0FBECDBFDF91B2
:100FE000CF911F910F91FF90EF90DF90CF90BF9026
:100FF000AF907F906F905F904F900C94BE21F7015F
:1010000000811181C8010E942622D82E682FC801B4
:101010000E94C522B8018D2D0E94F214182F282F8E
:10102000F701058102950F70B280B1101092720223
:1010300080917002877099F0BB2089F080E2810F67
:10104000883068F082E02F839E830E946125809122
:1010500070028770AA24A3942F819E818111A12CF4
:10106000C92EC2948FE0C822D12CFCE0CF16D10447
:1010700008F083C2F601EA5AFF4F0C949F2B892F88
:10108000807F9F70092F882311F00295007FBB207D
:10109000B9F0002309F45CC280E2810F883010F0BF
:1010A000211106C09091E301092B0093E30105C0D3
:1010B00090917202092B009372020E94BE2148C2D5
:1010C000812F2F830E94A2292F81002309F455C26A
:1010D000105E0095183010F0211106C09091E301C8
:1010E00009230093E30105C0909172020923009344
:1010F00072020E94BE2141C2392F307F892F8F702A
:10110000303211F08295807F222319F02130E9F0EE
:1011100026C0BB2081F020917302002351F00130E2
:1011200041F4982F922B291709F427C29093730248
:1011300024C2822B1EC0002319F0013009F41DC205
:101140008E830E947E298E8124C0BB2021F0063030
:1011500008F013C20EC0053008F00FC21AC0BB2041
:1011600059F0002331F0F701958190FFF1C19F7094
:1011700095830E94982901C2002359F0193309F080
:10118000F9C1FFEF07EE23E0F15000402040E1F706
:10119000EFC10E948D29F1C1292F26952695237034
:1011A00030E02115310521F02130310559F0E5C13C
:1011B000BB2019F0812F937002C080E090E00E9464
:1011C000AD0FE4C1BB2019F0812F937002C080E005
:1011D00090E00E94970FDAC1BB20F9F0153F51F063
:1011E000163F71F0143FA9F480916401909165015C
:1011F00081600BC08091640190916501826005C09F
:101200008091640190916501846090936501809361
:101210006401812F0E943E271EC0153F51F0163FEA
:1012200071F0143FA9F480916401909165018E7F63
:101230000BC080916401909165018D7F05C0809104
:101240006401909165018B7F9093650180936401A7
:10125000812F0E9477260E94022898C1892F8370CF
:1012600009F070C0B11090C1812F8295869587706A
:10127000880F880F412F4F7050E060E070E02A0126
:101280003B01082E04C0440C551C661C771C0A94B4
:10129000D2F714FF12C00FE010E020E030E004C0ED
:1012A000000F111F221F331F8A95D2F7B901A80121
:1012B000409550956095709503C040E050E0BA01AC
:1012C000969596959370892F90E08230910529F13B
:1012D00083309105C9F0009174021091750220913C
:1012E000760230917702019759F0442955296629F1
:1012F0007729CB01BA0160237123822393230AC08B
:10130000402A512A622A732ACB01BA01642975291D
:10131000862997290E949B2537C14429552966298A
:1013200077298091740290917502A0917602B09114
:1013300077028A019B01082719272A273B27C90121
:10134000B801E8CFBB2019F0892F817001C08695C4
:10135000882309F419C1812F829586958770880F9B
:10136000880F412F4F7050E060E070E02A013B0190
:10137000082E04C0440C551C661C771C0A94D2F736
:1013800014FF12C00FE010E020E030E004C0000FB6
:10139000111F221F331F8A95D2F7B901A80140956A
:1013A00050956095709503C040E050E0BA01969565
:1013B00096959370892F90E082309105E9F0833003
:1013C000910579F100916C0210916D0220916E02ED
:1013D00030916F02019759F04429552966297729E0
:1013E000CB01BA01602371238223932320C0402ABA
:1013F000512A622A732A15C044295529662977295A
:1014000080916C0290916D02A0916E02B0916F027A
:101410008A019B01082719272A273B27C901B80100
:1014200006C0CB01BA0164297529862997290E9433
:101430003225AAC0092F0F70BB2039F0802F0E94DF
:101440007A25812F0E9498299FC0812F0E948D2983
:10145000802F0E943C2598C0812F223FD1F128F493
:10146000203F49F0213F81F16EC0233FC9F1243F65
:1014700009F44EC068C0BB2019F1053008F07DC0EA
:10148000292F2F7181E090E0A0E0B0E0AC01BD0118
:1014900004C0440F551F661F771F2A95D2F780910D
:1014A0006C0290916D02A0916E02B0916F028A0160
:1014B0009B01082719272A273B27C901B80125C006
:1014C000063008F05AC0DCCFBB2029F0892F8F717D
:1014D0002EC0BB20D9F3892F8F710E943C254DC0AF
:1014E000BB2081F0292F2F7181E090E0A0E0B0E0D7
:1014F000BC01CD0104C0660F771F881F991F2A9574
:10150000D2F703C060E070E0CB010E94322535C005
:10151000BB2081F0192F1F71812F0E947A2528E0AE
:10152000129FC0011124836080937002812F0E945A
:101530007A2523C081E00E9461250230F0F082E02C
:101540000E9461251AC0BB2039F0002309F4BECFE8
:10155000812F0E94092A11C0002309F4BCCF8933CE
:1015600049F43FEF87EE93E0315080409040E1F73F
:1015700000C00000812F0E94A229E8E0CE1AD10805
:10158000F4E0CF16D10410F40E94C30FAA2009F48E
:101590003EC38091700280FD3AC3F70112828595A7
:1015A000859585950E947A25C7010E9496068091AF
:1015B000700285958595859527960FB6F894DEBFC0
:1015C0000FBECDBFDF91CF911F910F91FF90EF9094
:1015D000DF90CF90BF90AF907F906F905F904F90D3
:1015E0000C943C2502308CE5180708F008C301155F
:1015F0001C4508F00CC303C30C3DFCE51F0708F4B1
:10160000FEC20F3D1C4508F402C3F9C21092E3016B
:101610000E9484293FEF84E39CE031508040904059
:10162000E1F700C0000081E08093E00080E2809359
:10163000D8001092C900EFE1FEE43197F1F700C045
:10164000000087E090EBDC0180937D0290937E02A6
:10165000A0937F02B09380029CE088E10FB6F894DB
:10166000A895809360000FBE90936000FFCF80919B
:10167000C701982F9095917090FB80F98093C701D6
:10168000992319F08AE994E002C088E894E027964B
:101690000FB6F894DEBF0FBECDBFDF91CF911F9183
:1016A0000F91FF90EF90DF90CF90BF90AF907F9021
:1016B0006F905F904F900C94F40527960FB6F894B6
:1016C000DEBF0FBECDBFDF91CF911F910F91FF9075
:1016D000EF90DF90CF90BF90AF907F906F905F9032
:1016E0004F900C9405298091C70180FF10C0809114
:1016F000D801809581701F928F9381E594E09F932C
:101700008F930E948D060F900F900F900F908091F5
:10171000D80180FF41C08E7F8093D8016091D801AD
:101720007091D9018091DA019091DB010E949912A8
:101730008091C70180FF0FC08091D80181701F92F6
:101740008F9382EE93E09F938F930E948D060F906C
:101750000F900F900F900E944A103FEF80E792E0A9
:10176000315080409040E1F700C0000027960FB64E
:10177000F894DEBF0FBECDBFDF91CF911F910F91C7
:10178000FF90EF90DF90CF90BF90AF907F906F90E1
:101790005F904F900C94591081608093D801809194
:1017A000C70180FF0DC01F9281E08F938AE194E012
:1017B0009F938F930E948D060F900F900F900F9024
:1017C0008091D8018695D8C08091E3018272D1F0D2
:1017D00027960FB6F894DEBF0FBECDBFDF91CF9135
:1017E0001F910F91FF90EF90DF90CF90BF90AF903F
:1017F0007F906F905F904F900C9406148091E3015E
:10180000827231F327960FB6F894DEBF0FBECDBFBC
:10181000DF91CF911F910F91FF90EF90DF90CF90CC
:10182000BF90AF907F906F905F904F900C940F148B
:101830008091D90121E04091DB016091DA01885F5C
:1018400025C08091D90121E04091DB016091DA014E
:1018500088501CC06091DA0128E0620F08F46FEF35
:1018600021E04091DB0110C04091DB0128E0420FF4
:1018700008F44FEF06C04091DB0128E0421B08F45A
:1018800040E021E06091DA018091D90127960FB6FE
:10189000F894DEBF0FBECDBFDF91CF911F910F91A6
:1018A000FF90EF90DF90CF90BF90AF907F906F90C0
:1018B0005F904F900C94B5128091DC01833048F416
:1018C0008F5F05C08091DC01882319F081508093DF
:1018D000DC016091D8017091D9018091DA01909179
:1018E000DB0127960FB6F894DEBF0FBECDBFDF91A8
:1018F000CF911F910F91FF90EF90DF90CF90BF900D
:10190000AF907F906F905F904F900C94991281E010
:1019100033C00E947E128250833008F473CF82E07D
:101920002BC00E947E128650823008F46BCF86E076
:1019300023C00E947E128950853008F463CF89E06D
:101940001BC00E947E128F50853008F45BCF8FE061
:1019500013C00E947E128551823008F453CF85E176
:101960000BC088E109C00E947E128951893008F4B9
:1019700049CF89E101C083E227960FB6F894DEBF14
:101980000FBECDBFDF91CF911F910F91FF90EF90D0
:10199000DF90CF90BF90AF907F906F905F904F900F
:1019A0000C9403141092DF0132C182E08093DF01B6
:1019B0002EC10E94FA28811102C00E9405290E94AE
:1019C000E9289093AE018093AD010F30ECE51E073E
:1019D00009F4CDC008F042C008302CE5120709F424
:1019E000A8C0F0F404308CE5180709F490C068F43E
:1019F0000230ECE51E0709F486C003301C4509F0EF
:101A0000D9C08091AD018260D3C006302CE51207A9
:101A100009F487C008F089C08091AD018860C8C012
:101A20000B308CE5180709F493C068F40930ECE535
:101A30001E0709F482C00A301C4509F0BBC0809122
:101A4000AD0188607EC00D302CE5120709F484C01A
:101A500008F085C08091AD018D7FAAC0073F8CE55D
:101A6000180709F457C050F50231ECE51E0709F4D8
:101A700086C068F400312CE5120709F47CC00131FE
:101A80001C4509F097C08091AD018F7B91C0043156
:101A90008CE5180709F483C008F475C005311C45AE
:101AA00009F088C08091AD0182FB222720F991E0E6
:101AB000922790FB82F990FB83F97AC00A3FFCE5FC
:101AC0001F0709F450C058F4083F3CE5130729F1FB
:101AD000093F1C4509F06EC08091AE015CC00C3F0F
:101AE0009CE5190709F454C070F10D3F1C4509F03D
:101AF00061C08091AE01982F909591708E7F892B57
:101B000090FB81F949C08091AD01816051C0809105
:101B1000AD0117C08091AE0119C08091AE01826005
:101B20003BC08091AD01806143C08091AD01806276
:101B30003FC08091AD0180643BC08091AD01806861
:101B400037C0846035C08091AE018260816024C05E
:101B50008091AD018E7F2CC08091AD0117C0809126
:101B6000AD01877F25C08091AE018D7F15C080912A
:101B7000AD018F7E1DC08091AD018F7D19C0809118
:101B8000AD018F7715C08091AD01877F8B7F10C02D
:101B90008091AE018D7F8E7F8093AE010BC08091CE
:101BA000AD0187FB222720F991E0922790FB87F96E
:101BB0008093AD016091AD011091AE0184E090E0A1
:101BC0000E94372B612F81E290E00E94372B109208
:101BD000E30127960FB6F894DEBF0FBECDBFDF91AD
:101BE000CF911F910F91FF90EF90DF90CF90BF901A
:101BF000AF907F906F905F904F900C948429F70185
:101C000000811181C8010E949922D82E03CA27960B
:101C10000FB6F894DEBF0FBECDBFDF91CF911F91FD
:101C20000F91FF90EF90DF90CF90BF90AF907F909B
:101C30006F905F904F9008950895AF92BF92CF92AA
:101C4000DF92EF92FF920F931F93CF93DF93D82EE3
:101C5000C62EE901E42FF0E0611106C0E555FB4F07
:101C60004491E42F842F7BC0E62EF12C26E0829F46
:101C7000C00111240FEF10E0B8010E94772B5BEA3E
:101C800056039001579F300D11242D0D311D2D0D40
:101C9000311D822F880F280FC8018E199F098E9F32
:101CA000D0018F9FB00D9E9FB00D11249B2F2C9DB6
:101CB00060011124CD2CDD245801AC18BD08AE9E66
:101CC0006001AF9ED00CBE9ED00C11245801A21A08
:101CD000B108AE9C9001AF9C300DBE9C300D11241C
:101CE000232F3327021B130B0E9F90010F9F300DE4
:101CF0001E9F300D1124832F6230710591F04CF43A
:101D000061157105E9F061307105C1F4842F4D2D25
:101D100017C06430710571F044F06630710581F0D0
:101D20000DC0842F4B2F932F0BC0E42F4B2F9E2FD2
:101D30008D2D06C08B2F942F432F02C08B2F9D2DEE
:101D4000E42FF0E0E555FB4F4491E82FF0E0E55536
:101D5000FB4F8491E92FF0E0E555FB4FE491498377
:101D60008883EA83DF91CF911F910F91FF90EF90CD
:101D7000DF90CF90BF90AF9008959091AD0192FF0A
:101D80000DC0282F2871283019F4877F846006C081
:101D9000282F2471243011F48B7F886093FF0DC0AD
:101DA000282F2871283119F4877E846106C0282FD6
:101DB0002471243111F48B7E88612091AE0120FFC3
:101DC0000DC0382F3871383019F4877F816006C014
:101DD000382F3171313011F48E7F886021FF0DC0B2
:101DE000282F2871283119F4877E816106C0282F99
:101DF0002171213111F48E7E886194FD877E0895D2
:101E00001F93CF93DF93CDB7DEB767970FB6F894E4
:101E1000DEBF0FBECDBF4B8B5C8B6D8B7E8B8F8BF4
:101E200086E09E01235F3F4FD901E82F1D92EA957E
:101E3000E9F795E0FE017396D90101900D929A950C
:101E4000E1F7F901DE01179601900D928A95E1F70D
:101E5000CE0107960E945923811136C086E0FE010B
:101E60003796DE01119601900D928A95E1F77F81F8
:101E70006885EA85FB85309739F16F3F11F47F3F24
:101E800019F12091080230E0C90101968770992765
:101E90004091390250E08417950779F179836A837C
:101EA000FD83EC8396E0929FD001939FB00D1124A7
:101EB000A75FBD4FFE01319601900D929A95E1F713
:101EC000809308020E94F42216E0809139029091DA
:101ED0000802891711F1189FC0011124875F9D4FD7
:101EE0000E9459238823C9F08091390290E001961D
:101EF0008770992780933902E8CF1092E3010E94FE
:101F000084291092080210923902E2E0F2E086E0A1
:101F1000DF011D928A95E9F7D7CF67960FB6F8943F
:101F2000DEBF0FBECDBFDF91CF911F9108952091ED
:101F3000A0013091A1018217930771F09093A10144
:101F40008093A001E091B001F091B101309721F0B0
:101F50000084F185E02D0994089520919E0130912F
:101F60009F018217930771F090939F0180939E01C8
:101F7000E091B001F091B101309721F00680F78136
:101F8000E02D09940895E091B001F091B1013097EE
:101F900021F00190F081E02D099480E008950F93E5
:101FA0001F93CF93DF93C62FD42F022FFC01828182
:101FB0008823C9F0609362010E94F62790939D01E7
:101FC00080939C0180E28C0F883008F05EC0C7705F
:101FD00081E001C0880FCA95EAF7DF91CF911F9188
:101FE0000F910C9498291091620116133EC08091B4
:101FF0009C0190919D010E94CC27883C9105A8F5F9
:10200000C0E2CD0F1D17B9F080E2810F883040F497
:10201000177081E001C0880F1A95EAF70E948D2998
:10202000C83048F481E09D2F977001C0880F9A95C1
:10203000EAF70E949829802F0E94092A093349F45F
:10204000FFEF27EE83E0F15020408040E1F700C031
:102050000000802F0E94A229C830B8F4D77081E018
:1020600001C0880FDA95EAF70AC080E28C0F883049
:1020700060F4C77081E001C0880FCA95EAF7DF916C
:10208000CF911F910F910C948D29DF91CF911F91CA
:102090000F9108951092DE018091C70180FF08C062
:1020A00086E796E09F938F930E948D060F900F9086
:1020B00008958091D80180FF0AC0809A81B38E7FF5
:1020C00091B391602FB7F894ECE6F1E00DC080E099
:1020D00090E0FC01E459FE4F1182108212820396B7
:1020E00080339105B1F7E9CF31E0EC39F30789F09E
:1020F000319148E091BB000000C037FF81BB330F36
:10210000000000C000C000C081BB00C04A9591F72C
:10211000EBCF2FBF87EC90E00197F1F700C00000F4
:102120000895EF92FF920F931F93CF93DF937C015B
:10213000CCE6D1E000E010E0F70184810830110521
:102140001CF4882339F002C0811104C09E01409123
:10215000DB0102C09E0140E06091DA018091D9016B
:102160000E941D0E0F5F1F4F23960031110521F7AE
:102170000E945910F701248130E02F5F3F4F2170FA
:1021800033272483DF91CF911F910F91FF90EF9020
:102190000895EF92FF920F931F93CF93DF93EC017B
:1021A0002C813D812F5F3F4F217033273D832C834E
:1021B0008CE6E82E81E0F82E10E005E5812F86956B
:1021C0004C815D81480F511D842F81709701409192
:1021D000DB016091DA01809F802D11240E941D0E89
:1021E0001F5F83E0E80EF11C103141F7DF91CF91C2
:1021F0001F910F91FF90EF900C945910CF93DF93A4
:1022000080E090E0FC01E459FE4F118210821282BE
:10221000039680339105B1F7C0E0D0E0EC2FF0E0F9
:1022200080916A01082E000C990B9F01220F331F29
:10223000E20FF31FC817D907A4F080910C01082EF4
:10224000000C990B8C179D0764F09F0124593E4F99
:102250004091DB016091DA018091D9010E941D0E4D
:1022600005C0E459FE4F1182108212822196C031BE
:10227000D105A1F60E94591080910B0190916A013D
:10228000980F90936A0120910C01280F20930C0164
:10229000121614F49F301CF0819580930B01DF918E
:1022A000CF910895AF92BF92CF92DF92EF92FF92BB
:1022B0000F931F93CF93DF93FC01828180FF03C0B4
:1022C000BB24BA9402C0BB24B3942CE6E22E21E0D6
:1022D000F22E0EE611E0C0E0D0E0F8013197108256
:1022E000F7011082F801108294E0C92ED12CA12CA4
:1022F000809169018A0D87FD805F082E000C990B83
:10230000C817D90791F48091DB018C9DA0018D9DA8
:10231000500D112455954795559547959701609116
:10232000DA018091D9010E941D0EAB0CF1E0CF1AA9
:10233000D108F1F6219683E0E80EF11C0D5F1F4FE6
:10234000C031D10551F60E9459108091690191E088
:10235000B91206C0811102C08FE006C0815004C0CE
:1023600090E001968F70992780936901DF91CF915A
:102370001F910F91FF90EF90DF90CF90BF90AF90A3
:102380000895EF92FF921F93CF93DF93EC018CE6B9
:10239000E82E81E0F82E10E08C8197014091DB015E
:1023A0006091DA01810F0E941D0E115F83E0E80E3B
:1023B000F11C103F89F70E9459108A819C8180FF8F
:1023C00002C09F5F01C091509C83DF91CF911F910C
:1023D000FF90EF9008959091D80190FF0FC020E0FA
:1023E00030E0F901E459FE4F8183608342832D5F21
:1023F0003F4F20333105A9F70C94591008950F93DE
:102400001F93CF93DF9300D01F92CDB7DEB78C011F
:1024100080916B0181110AC09E012F5F3F4F4FEFEA
:102420006FEF0E941D0E8A8180936B01F8018481F9
:10243000813051F028F0823061F440916B010AC084
:1024400080916B0140E007C060916B0140E080E04B
:1024500003C040E080E060E00E94EB11F8012481BD
:1024600030E0C901019663E070E00E948B2B848309
:102470000F900F900F90DF91CF911F910F910895C2
:10248000CF93DF9300D01F92CDB7DEB79091D801E4
:1024900090FF0AC09E012F5F3F4F0E941D0E4B818F
:1024A00069818A810E94EB110F900F900F90DF914C
:1024B000CF910895CF93DF93EC01E8EDF1E04381F4
:1024C00062818C810E9440128C818F5F8C83DF91AE
:1024D000CF910895CF93DF93EC01EC81F0E0E157C9
:1024E000F94F4491E8EDF1E0628181810E94401250
:1024F0008C818F5F8C83DF91CF9108958091D8017B
:1025000080FF02C08695089580E008958091D801EB
:10251000282F269530E02115310519F4817082604D
:1025200005C02532310524F0817088648093D8017C
:102530000895CF93DF9300D000D0CDB7DEB7AB01C5
:10254000BC0149835A836B837C830E948612498134
:102550005A816B817C8188E090E00F900F900F9002
:102560000F90DF91CF910C94492B5F926F927F92E5
:102570008F929F92AF92BF92CF92DF92EF92FF9293
:102580000F931F93CF93DF9300D000D0CDB7DEB76A
:10259000182FB62E042F522E9091D80190FFB2C062
:1025A000E92FE695AE2FB0E0A85EBE4F8C918093E8
:1025B000DD019E7F923061F49E012F5F3F4F812F9E
:1025C0000E941D0E4B8169818A810E94EB1160C0BF
:1025D000823019F40091DB015BC0863019F4109150
:1025E000D90156C08930D9F3893109F051C0E95178
:1025F0008E2F80958170A82EE695F0E0EF58F94F68
:10260000C590D4903CE6832E31E0932EE12CF12C42
:10261000DD244AE4642E46E0742EEC9CC001ED9C5F
:10262000900DFC9C900D112424E0969587952A9599
:10263000E1F7AA2011F0810F03C0212F281B822F60
:102640009091C70190FF13C0DF92CF921F92AF927B
:102650001F928F93FF92EF927F926F928C830E94D2
:102660008D060FB6F894DEBF0FBECDBF8C819401EE
:10267000402F6B2D0E941D0E3FEFE31AF30A83E0FB
:10268000880E911C90E1E916F10439F60E94591068
:102690001093D901B092DA010093DB015520E9F0E3
:1026A0006091D8017091D9018091DA019091DB019C
:1026B0000E9499128091C70180FF24C08091DB01A4
:1026C0001F928F938091DA011F928F938091D9018D
:1026D0001F928F9385E296E00CC08091C70180FF26
:1026E00011C01F920F931F92BF921F921F938EEFE4
:1026F00095E09F938F930E948D060FB6F894DEBFEE
:102700000FBECDBF0F900F900F900F90DF91CF9124
:102710001F910F91FF90EF90DF90CF90BF90AF90FF
:102720009F908F907F906F905F9008959091D801C7
:1027300090FF68C09170811102C0926006C085321E
:1027400010F0986402C0880F982B9093D8016623EC
:10275000B1F06091D8017091D9018091DA01909126
:10276000DB010E9499128091C70180FF1BC08091FC
:10277000D80186951F928F9382EE95E00BC08091D1
:10278000C70180FF0FC08091D80186951F928F935B
:1027900084EC95E09F938F930E948D060F900F908D
:1027A0000F900F906091D801669570E04BE050E07B
:1027B00080E091E00E94A52B892B19F00E944A101D
:1027C00015C081E08093DE010E94F6279093D3012B
:1027D0008093D2018091C70180FF08C08BEA95E009
:1027E0009F938F930E948D060F900F9081E08093AE
:1027F000D50120E04091DB016091DA018091D9019F
:102800000C94B512089561E00C9496138091D80150
:102810008695815009F484E261E00C9496138091CE
:10282000D80186958F5F853208F081E061E00C94D5
:102830009613E8EDF1E083E0808311828FEF8283CD
:102840008383148260817181828193810C949912B7
:102850006F927F928F929F92AF92BF92CF92DF92B0
:10286000EF92FF920F931F93CF93DF930DE311E04D
:10287000A3EAB1E0B12CEE24E394F12C4D016D906C
:102880007C90119711961C921E92E80189918E01FD
:10289000E82FE295EF70F0E091A18F70970101C0F1
:1028A000220F8A95EAF7892F822B81A382A1A22E7B
:1028B000A0948A2182A3D0EADA95F1F782E4C82EA7
:1028C00081E0D82E60E070E0E60189916E01C82FAA
:1028D000C295CF70D0E048A1CD91DC91119750E026
:1028E0008F7002C0559547958A95E2F740FD08C064
:1028F000C701062E02C0880F991F0A94E2F702C092
:1029000080E090E0C82BD92B1196DC93CE936F5FBB
:102910007F4F6F307105C1F681A1A822A1A282A1CB
:10292000282B22A3129681E0F401208131816216C6
:10293000730609F480E0B82AF1E0AD3ABF0709F068
:102940009DCFBB2049F081E0809368010E94F6276B
:10295000909367018093660180916801882391F1CB
:1029600080916601909167010E94CC27069750F1F3
:102970008091A3019091A4019093B4018093B3013D
:102980008091A5019091A6019093B6018093B50125
:102990008091A7019091A8019093B8018093B7010D
:1029A0008091A9019091AA019093BA018093B901F5
:1029B0008091AB019091AC019093BC018093BB01DD
:1029C000109268018B2DDF91CF911F910F91FF9095
:1029D000EF90DF90CF90BF90AF909F908F907F90BF
:1029E0006F900895CF93DF934FE0749F900111246F
:1029F0009BE4899F200D311D1124260F311D220FCC
:102A0000331F2C503F4FF901C591D491CE01C238EC
:102A1000D10569F1B0F4C133D10509F475C048F4AA
:102A2000C932D10509F469C0CA32D10509F473C0AD
:102A300079C0C533D10509F459C0C933D105B9F0FE
:102A400071C0C33ED10571F138F4C03ED105B1F07B
:102A5000C23ED10511F166C0C63ED105B9F1C73EEF
:102A6000D105C9F1C43ED10509F05CC024C0209154
:102A7000AD0120FD1BC221FD19C21DC22091AD0177
:102A800020FD0EC22091AE0120FF15C28091AD0144
:102A900084FDB8C183EE90E00EC22091AD0122FF0B
:102AA0000AC2F4CF8091AD0182FDFDC18091AE01DB
:102AB00080FDFCC1EBCF2091AE0121FFFCC18091D4
:102AC000AD0184FD9FC187EE90E0F5C12091AD017D
:102AD00023FFF1C1F4CF8091AD0183FDEAC1809164
:102AE000AE0181FFECCF84EE90E0E5C12091AD0115
:102AF00025FFE1C189E290E0DEC12091AD0125FF13
:102B0000DAC185E390E0D7C12091AD0126FFD3C1A2
:102B10008AE290E0D0C12091AD0126FFCCC181E3D3
:102B200090E0C9C1C11520E5D20708F047C0C11522
:102B300030E4D30708F02DC1C83ED10518F5C03EDA
:102B4000D10508F0B8C1C83AD10570F4C53AD1052D
:102B500008F0AAC0C130D10509F4ADC108F452C1D2
:102B6000249708F44FC1A7C1CF3BD10508F4A7C0F3
:102B7000C03CD10508F446C1FE01EE0FFF1FE55D24
:102B8000FC4FFCC0C11540E2D40760F4C11521E040
:102B9000D20708F090C1C03FD10508F433C1CE017F
:102BA000906589C1C11530E3D30708F0EAC0FE0182
:102BB000FF70EE0FFF1FE555FB4FE0C0C11545E567
:102BC000D40708F044C0C11584E5D80708F0FBC05D
:102BD000C11592E5D90710F5C11521E5D20708F016
:102BE000DDC08C2F837021E030E002C0220F331F44
:102BF0008A95E2F73C68CE0174E0969587957A95C0
:102C0000E1F78370382BEC2FEF70E695E69540E204
:102C1000E49FC0011124822B932B4DC12C2F2695AC
:102C20002695AE0143705527C115D34508F0BCC0A9
:102C300080E2289F9001112481E090E002C0880F7B
:102C4000991F4A95E2F7822B932B9C6834C1C115DA
:102C500049E5D40798F4C11588E5D80708F0B9C04C
:102C6000C11596E5D90708F0CDC08C2F0E94BD0E86
:102C70008F7190E0982F882790621DC1C1152AE5B9
:102C8000D20708F4ACC0CE0190568115904208F0EE
:102C9000B9C08D2F8F710E94BD0EFE01FF27F0621B
:102CA0008F719F01382BACC0C53AD10509F4ADC076
:102CB000C63AD10509F0ACC082E890E4FCC0C83A3D
:102CC000D10509F4A8C0C93AD10509F4A7C0CA3A88
:102CD000D10509F4A6C0CB3AD10509F4A5C0CC3A78
:102CE000D10509F4A4C0CB3BD10509F4A3C0CC3B6A
:102CF000D10509F4A2C0CD3AD10509F4A1C0C03B69
:102D0000D10509F4A0C0CE3AD10509F49FC0CF3A4D
:102D1000D10509F49EC0C13BD10509F49DC0C23B59
:102D2000D10509F49CC0C33BD10509F49BC0C43B49
:102D3000D10509F49AC0C53BD10509F499C0C63B39
:102D4000D10509F498C0C73BD10509F497C0C83B29
:102D5000D10509F496C0C93BD10509F495C0CD3B16
:102D6000D10509F494C0CE3BD10509F493C0CA3B08
:102D7000D10509F492C080E094E49DC085919491BE
:102D80009AC0CE019927D3FF02C0986C94C0906C72
:102D900092C0FE01FF70CF01906A8DC0FC2FEE271C
:102DA000CF01816F906A87C090E2299F9001112422
:102DB00081E090E002C0880F991F4A95E2F7822BCC
:102DC000932B9A6878C0FC2FEE27CF01846F906A0E
:102DD00072C0FC2FEE27CF01806F906A6CC08C2FE1
:102DE0008F700E94BD0EFE0194E0F695E7959A95CE
:102DF000E1F7EF70F0E0FE2FEE27F0699F01282B3E
:102E0000C90159C080E090E056C081E890E453C009
:102E100083E890E450C082EE94E44DC089EE94E4DF
:102E20004AC08AEE94E447C085EB94E444C086EB44
:102E300094E441C083EB94E43EC084EB94E43BC053
:102E400087EB94E438C08CEC94E435C08DEC94E4CA
:102E500032C083E895E42FC08AE895E42CC082E96B
:102E600095E429C084E995E426C081E296E423C074
:102E700083E296E420C084E296E41DC085E296E4F5
:102E80001AC086E296E417C087E296E414C08FE683
:102E900094E411C080E794E40EC08AE296E40BC08B
:102EA00089E390E008C082EE90E005C080EE90E0FB
:102EB00002C086EE90E0DF91CF9108959FB7F8941D
:102EC0001092E0019FBF9091F001943009F057C03B
:102ED0009091E9009F703091EC00232F217030FD1C
:102EE00020E8922B23E02093E9002091EB0020FFC3
:102EF00043C02091EE0027FF3FC02091A201222372
:102F000021F02091E80025FF37C01092A20126E0B1
:102F10003091E80035FD15C03091F001343061F595
:102F20003091EB0035FD28C0215021F481E08093E1
:102F3000A20122C0EFE9FFE03197F1F700C00000E5
:102F4000E7CF8093F1008091E80085FD0AC0809171
:102F5000E80080FFFCCF8091E8008E778093E80046
:102F600006C08FB7F89421E02093E0018FBF9F70D7
:102F70009093E90080E008959F709093E9008FEFAF
:102F800008952091E4003091E50095E64091EC0031
:102F9000842F817040FF22C08091E80080FD1CC01A
:102FA0008091F001882391F0853091F08091EB00C1
:102FB00085FD10C04091E4005091E5004217530791
:102FC00029F39A01915011F784E0089582E0089561
:102FD00083E0089581E0089580E008954091E8003D
:102FE00042FFDECF08958091F20187FF11C08091EA
:102FF000E80082FD05C08091F0018111F8CF11C079
:103000008091E8008B770BC08091F001882349F014
:103010008091E80080FFF8CF8091E8008E77809360
:10302000E8000895982F973058F59093E900981785
:1030300039F07091EC002091ED005091F00003C048
:10304000242F762F50E021FF19C03091EB003E7FF6
:103050003093EB003091ED003D7F3093ED003091E7
:10306000EB0031603093EB007093EC002093ED00A7
:103070005093F0002091EE0027FF07C09F5FD3CF51
:103080008F708093E90081E0089580E00895209199
:10309000F8013091F9012617370748F061157105DD
:1030A00039F42091E8002E772093E80001C0B9019F
:1030B00040E061157105A9F12091F001222309F486
:1030C00043C0253009F442C02091E80023FD40C0F0
:1030D0002091E80022FD32C02091E80020FFE9CFD6
:1030E0004091F3002091F20030E0342BFC01CF013D
:1030F0006115710559F02830310540F481918093B4
:10310000F100615071092F5F3F4FF1CF41E028304E
:10311000310509F040E02091E8002E772093E80087
:10312000C8CF4111C9CF0AC08091F001882361F056
:10313000853061F08091E80083FD0AC08091E8004D
:1031400082FFF2CF80E0089582E0089583E0089541
:1031500081E008958091DF01811107C08091F00125
:10316000843011F081E0089582E00895CF93DF93D9
:10317000CDB7DEB72D970FB6F894DEBF0FBECDBF2B
:1031800084B7877F84BF0FB6F894A89580916000BC
:10319000886180936000109260000FBE80E8809389
:1031A00061001092610085B7806885BF85B780682F
:1031B00085BF0E940F200E942E208091E200846033
:1031C0008093E2008EE597E1909361018093600126
:1031D00078948091F0018823A1F01091E9001F708C
:1031E0009091EC00892F817090FD80E8182B10924F
:1031F000E9008091E80083FD0E94F41C1F70109389
:10320000E90082E084BD93E095BD9AEF97BD80937D
:103210006E00ADE3B1E041E050E025E02A0F8D9172
:10322000E82FE295EF70F0E031A18F70BA0102C093
:10323000660F771F8A95E2F7CB01962F909593231F
:1032400091A392A1892B82A32A13E9CFA2E4B1E032
:1032500041E050E02FE02A0F8D91E82FE295EF70CA
:10326000F0E031A18F70BA0102C0660F771F8A9516
:10327000E2F7CB01962F9095932391A392A1892BEE
:1032800082A32A13E9CFE3EAF1E0A3EBB1E01192C4
:1032900011921D921D9271E0ED3AF707C1F70E945D
:1032A000FA28811102C00E9405290E94FA28811182
:1032B00002C00E94052982E090E00E94232B8093A7
:1032C000C7010E94E9289093AE018093AD0183E08D
:1032D00090E00E94232B682F70E080E090E00E9435
:1032E0009B258091AF018111DEC08091C701816073
:1032F0008093C70181ED98E09F938F930E948D0684
:103300008091C7010F900F9080FF08C08BEB98E071
:103310009F938F930E948D060F900F900E94FA2822
:10332000811110C08091C70180FF08C083E998E037
:103330009F938F930E948D060F900F900E940529F6
:103340000E94191488E090E00E942B2B6093D80112
:103350007093D9018093DA019093DB016E7FD1F4F1
:103360008091C70180FF08C08AE498E09F938F9303
:103370000E948D060F900F900E94191488E090E033
:103380000E942B2B6093D8017093D9018093DA01AE
:103390009093DB010E9486128091C70180FF08C0D4
:1033A00081E398E09F938F930E948D060F900F907A
:1033B0008091C70180FF0FC08091D80181701F925A
:1033C0008F9384E198E09F938F930E948D060F90D6
:1033D0000F900F900F908091C70180FF0FC08091D8
:1033E000D80186951F928F9389EF97E09F938F93D3
:1033F0000E948D060F900F900F900F908091C70143
:1034000080FF0EC08091D9011F928F938FED97E0BE
:103410009F938F930E948D060F900F900F900F90A7
:103420008091C70180FF0EC08091DA011F928F93B7
:1034300085EC97E09F938F930E948D060F900F90DD
:103440000F900F908091C70180FF0EC08091DB012B
:103450001F928F938BEA97E09F938F930E948D0624
:103460000F900F900F900F908091C70180FF0EC0BA
:103470008091DC011F928F938FE897E09F938F9349
:103480000E948D060F900F900F900F901092DE010A
:103490008091D80180FF04C060E086950E94961359
:1034A00081E08093AF018DE091E09093B101809332
:1034B000B0018FE399E00E94F40522242394312C7B
:1034C0008091F001853009F03FC08BE399E00E94C4
:1034D000F4058091F001843021F11092B20120E4D2
:1034E00088E190E00FB6F894A895809360000FBE35
:1034F0002093600083B7817F846083BF83B781603E
:1035000083BF7894889583B78E7F83BF0FB6F89476
:10351000A89580916000886180936000109260009F
:103520000FBE8091EF01882309F4CACF0E942814AE
:10353000E3EBF1E081919191892B09F004C281E0E4
:10354000ED3BF807B9F7BCCF0E94281478EC872E22
:1035500071E0972EE3EBAE2EE1E0BE2E00E010E02E
:103560000B87D501CD90DD905D01F401E190F190E4
:103570004F01EC24FD24E114F104B1F40F5F1F4F5F
:103580000530110569F78FEF8E838F8318860E94AF
:10359000F6278160782F9A8789874E815F816885B9
:1035A0008A850E94000F7FC08091C70181FD03C002
:1035B00080E090E04BC088EF98E00E94F40563EB58
:1035C000662E61E0762E412C512C5F924F92A3EF34
:1035D000B8E0BF93AF930E948D0680EF98E00E9401
:1035E000F405D3018C9111969C91B2E06B0E711C85
:1035F0009C870E946829282F9C85892F2D870E94EF
:1036000068292D8530E0322F2227F901E82BCF01E0
:103610009F938F93AAEEB8E0BF93AF930E948D065D
:1036200088EE98E00E94F405FFEF4F1A5F0A0FB68C
:10363000F894DEBF0FBECDBF35E04316510429F626
:10364000B7CF01968F30910509F498CF3101082E3C
:1036500002C0660C771C0A94E2F793012E213F21E9
:10366000232B79F389834B854A83C620D72081E0B9
:10367000CD2809F480E08B830E94F6278160782FA3
:103680009D838C8349815A816B818D810E94000FBB
:10369000000F111FF801E853FE4F808191816826C9
:1036A0007926718260828091C4019091C5010E9447
:1036B000CC27AC019091C301911103C02CE231E001
:1036C00002C022E330E04217530708F478C080912B
:1036D000BF011091C00181110BC011114AC120918D
:1036E000C101211146C12091C201211142C167C00F
:1036F0009F3F19F09F5F9093C301181624F40E9416
:103700001E278093BF018091BF0187FF05C00E94E3
:103710001E2781958093BF01111624F40E941E2755
:103720008093C0018091C00187FF05C00E941E27C1
:1037300081958093C0013091BF013323E1F0209146
:10374000C0012223C1F055EB3503C0011124892F9C
:10375000990F990B009709F481E08093BF0165EB05
:103760002603C0011124892F990F990B009709F4A2
:1037700081E08093C0018091C101181624F40E9459
:10378000FC268093C1018091C10187FF05C00E9482
:10379000FC2681958093C1018091C201181624F402
:1037A0000E94FC268093C2018091C20187FF05C060
:1037B0000E94FC2681958093C2010E9402281091EC
:1037C000C6010E94C30F181739F10E94C30F182FAA
:1037D0008093C6018091C70182FF1EC080FF04C094
:1037E00086E199E00E94F4058091C70180FF0CC03A
:1037F0001F921F9381E199E09F938F930E948D0602
:103800000F900F900F900F908091C70180FF04C020
:103810008FE099E00E94F4058091DE01882309F48D
:103820004FCE8091DD01E091D801E695E81BE09351
:10383000D401823049F4F0E0E95CF64FE4910E2FB8
:1038400010E02AE632E149C0863049F4F0E0EC5C51
:10385000F64FE4910E2F10E02AE532E13EC08930A8
:1038600051F4E695F0E0EF5CF64FE4910E2F10E096
:1038700021EC31E132C08F3051F4E695F0E0E25DA9
:10388000F64FE4910E2F10E022E531E126C085319C
:1038900049F4F0E0E55DF64FE4910E2F10E02EEFD5
:1038A00030E11BC0883181F0833239F4E9E2F9E07C
:1038B000059114912FEF31E110C0843251F404EFDF
:1038C00011E021E930E109C008EE13E029EC30E114
:1038D00004C000ED17E02CE13EE08091D501882383
:1038E000A9F01092D5012D873C870E94F627A801E8
:1038F00040955095840F951F9093D3018093D201EA
:103900001092D7011092D6013C852D858091D2016D
:103910009091D3012D873C870E94CC272D853C8533
:103920008017910708F4CCCDE091D201F091D3013A
:103930000E0F1F1F1093D3010093D20182ED91E06F
:10394000F9010995BDCD80E189BD82E189BD09B448
:1039500000FEFDCF8091D8008F7D8093D8008091AC
:10396000E00082608093E0008091E00081FDFCCF68
:10397000A7CD9F3F09F0BECEC6CECF92DF92FF9279
:103980000F931F93CF93DF931F92CDB7DEB7F82E1F
:103990008B0199830E94C117998181111CC0CF2C82
:1039A000D92E01151105B1F08091E80085FD0AC0FE
:1039B0008091E8008E778093E8000E94C1178823E9
:1039C00081F309C0F60181916F018093F1000150EC
:1039D0001109E7CF80E00F90DF91CF911F910F91F8
:1039E000FF90DF90CF9008951F93CF93DF93CDB7D3
:1039F000DEB7AA970FB6F894DEBF0FBECDBFE2EFD9
:103A0000F1E088E08E0F9091F10091938E13FBCF3F
:103A10008091F301833009F460C030F4813071F09B
:103A2000823009F49CC0B3C08A3009F488C08B305E
:103A300009F46BC0893009F0AAC020C08091F2015E
:103A4000813A09F0A4C08091E800877F8093E80064
:103A50008091F6019091F701892B21F468E086EEC0
:103A600091E003C060E080E090E070E00E944718C1
:103A70008091E8008B778093E80089C08091F20103
:103A8000813209F084C08091F6019091F70102978C
:103A900008F07DC08091E800877F8093E8008091E6
:103AA000E80082FD05C08091F0018111F8CF6FC060
:103AB0002091F3008091F20090E0922B029729F47C
:103AC0008091F1008B7F813021F48091F10080930F
:103AD000E5018091E8008B7756C08091F201813A30
:103AE00009F055C08091F6019091F701892B09F0FA
:103AF0004EC08091E800877F8093E8008091E800C5
:103B000080FFFCCF8091170139C08091F201813292
:103B1000F1F58091F6019091F701892BC1F5809123
:103B2000E800877F8093E8000E94F3178091F401FA
:103B3000809317011092E3010E94842928C080918C
:103B4000F201813221F58091E800877F8093E800BF
:103B50000E94F3178091F5018093E40118C08091D1
:103B6000F201813AA1F48091E800877F8093E80018
:103B70008091E80080FFFCCF8091E4018093F10008
:103B80008091E8008E778093E8000E94F31780917F
:103B9000E80083FFE2C18091F2019091F301492F87
:103BA00050E04A30510508F0D8C1FA01EE59FF4FF4
:103BB0000C949F2B803821F0823809F0CEC108C0C8
:103BC0008091EE019091EF01992389F082600FC0FE
:103BD0008091F6018F70873008F0BFC18093E900B3
:103BE0008091EB0085FB882780F91092E900909185
:103BF000E800977F9093E8008093F1001092F10025
:103C00007FC1282F2D7F09F0A8C1882319F08230A9
:103C100061F0A3C18091F401813009F09EC193301D
:103C200009F080E08093EF012EC08091F4018111B2
:103C30002AC08091F6018F702FEF280F263008F0F0
:103C40008CC18093E9002091EB0020FF1CC09330D1
:103C500021F48091EB00806214C09091EB009061A0
:103C60009093EB0021E030E0A90102C0440F551F02
:103C70008A95E2F74093EA001092EA008091EB0007
:103C800088608093EB001092E9008091E800877FC4
:103C90008093E8000E94F31760C181115EC110910A
:103CA000F4011F778091E3008078812B8093E300FB
:103CB0008091E800877F8093E8000E94F31780914D
:103CC000E80080FFFCCF8091E30080688093E300F0
:103CD000111102C082E001C083E08093F0013DC178
:103CE0008058823008F039C12091F4013091F501FB
:103CF0002C3D53E0350779F583E08A838AE2898396
:103D00004FB7F894DE01139620E03EE051E2E32F36
:103D1000F0E050935700E49120FF03C0E295EF706C
:103D20003F5FEF708E2F90E0EA3010F0C79601C031
:103D3000C0968D939D932F5F243149F74FBF80919B
:103D4000E800877F8093E8006AE270E0CE01019688
:103D50000E944718C4C08091F6019091F701432F4B
:103D6000552743305105B9F06CF44130510509F441
:103D700003C14230510509F0F0C08BE590E0EBE45F
:103D8000FAE05BC04132510509F434C042325105BA
:103D900009F43FC0E2C0C901992781309105D1F0F3
:103DA0005CF4892B09F0D9C0E6EDFAE0E4918E2F9E
:103DB00090E0E6EDFAE03EC08230910599F003977D
:103DC00009F0CBC0E8EBFAE0E4918E2F90E0E8EB4D
:103DD000FAE030C0ECECFAE0E4918E2F90E0ECECED
:103DE000FAE028C0EEEBFAE0E4918E2F90E0EEEBE3
:103DF000FAE020C08330910508F0AFC0880F991F0A
:103E0000FC01E65AFE4F0190F081E02D89E090E040
:103E100014C08330910508F0A0C0FC01EE0FFF1F15
:103E2000EC5AFE4F0190F081E02DDC01AF5ABE4FFD
:103E30008C9190E0009709F490C02091E800277FD2
:103E40002093E8002091F8013091F90128173907F3
:103E500008F4C90140E0009789F12091F001222384
:103E600009F43DC02530D9F12091E80023FD37C089
:103E70002091E80022FD2FC02091E80020FFEBCF29
:103E80004091F3002091F20030E0342B009759F07C
:103E90002830310540F444914093F1003196019768
:103EA0002F5F3F4FF3CF41E02830310509F040E06C
:103EB0002091E8002E772093E800CDCF4111CDCF9F
:103EC0000AC08091F001882351F0853041F0809143
:103ED000E80083FD04C08091E80082FFF2CF80916A
:103EE000E8008B778093E80038C08038B1F5809186
:103EF000E800877F8093E8008091F1018093F100D2
:103F00008091E8008E77C4CE811127C01091F40112
:103F1000123018F58091E800877F8093E8001093B5
:103F2000F1010E94F317111106C08091E30087FD93
:103F300002C081E001C084E08093F00142E061ECC6
:103F400081E00E94121842E261EC82E00E941218A5
:103F500042E261EC83E00E9412188091E80083FF46
:103F600010C08091E800877F8093E8008091EB008B
:103F700080628093EB0005C082E190E0E6EAFAE01F
:103F80005CCFAA960FB6F894DEBF0FBECDBFDF910F
:103F9000CF911F9108951F920F920FB60F92112487
:103FA0002F933F934F935F936F937F938F939F9341
:103FB000AF93BF93CF93DF93EF93FF93C091E9004B
:103FC000CF708091EC00D82FD17080FDD0E8109296
:103FD000E9008091F000877F8093F00078940E9440
:103FE000F41C1092E9008091F00088608093F0004A
:103FF000CD2BCF70C093E900FF91EF91DF91CF916E
:10400000BF91AF919F918F917F916F915F914F91F0
:104010003F912F910F900FBE0F901F901895E8EDD4
:10402000F0E080818E7F80831092E2001092DA00AF
:104030001092E100A0EEB0E08C9181608C938081C1
:104040008F77808319BCA7EDB0E08C918E7F8C9325
:1040500080818F7E80831092E2010895CF92DF925B
:10406000EF92FF920F931F93CF93DF93C8EDD0E0B1
:1040700088818F7E8883E7EDF0E080818160808396
:1040800084E082BF81E08093E20188818E7F888313
:1040900002EE10E0F80110821092DA0081EEC82ED4
:1040A000D12CF601108288818F778883888180687F
:1040B000888388818F7D888319BC1092F0011092CB
:1040C000F1011092EF011092EE0190EEE92EF12C29
:1040D000F70180818B7F808388818160888342E0C3
:1040E00060E080E00E941218F60180818E7F80835C
:1040F000F801808181608083808188608083F701FE
:1041000080818E7F8083888180618883DF91CF91D9
:104110001F910F91FF90EF90DF90CF9008951F9225
:104120000F920FB60F9211242F933F934F935F93EB
:104130006F937F938F939F93AF93BF93EF93FF936F
:104140008091E10082FF49C08091E20082FF45C07A
:104150008091E1008B7F8093E1002091E1012F5F4E
:10416000822F62E30E946B2B992319F02093E101C7
:1041700034C01092E1018091E001882371F18091B7
:10418000F001843041F58091E9008F702091EC00BE
:10419000922F917020FD90E8892B93E09093E90095
:1041A0009091EB0090FF14C09091EE0097FF10C02B
:1041B0009091E80095FF03C01092F100F9CF909123
:1041C000E80090FF05C09091E8009E779093E8008A
:1041D0008F708093E9001092E0018091DA0080FFF7
:1041E00032C08091D80080FF2EC08091DA008E7F8F
:1041F0008093DA008091D90080FF1CC080E189BDE6
:1042000082E189BD09B400FEFDCF81E08093F00119
:1042100087E39AE00E94F4058091E201811113C0C6
:104220000E940F200E942E208091E20084608093E3
:10423000E20009C019BC1092F0018BE39AE00E94E1
:10424000F4051092E2018091E10080FF1BC0809193
:10425000E20080FF17C08091E2008E7F8093E20031
:104260008091E20080618093E2008091D8008062BA
:104270008093D80019BC85E08093F0018FE39AE029
:104280000E94F4058091E10084FF38C08091E20033
:1042900084FF34C080E189BD82E189BD09B400FE9C
:1042A000FDCF8091D8008F7D8093D8008091E10070
:1042B0008F7E8093E1008091E2008F7E8093E20008
:1042C0008091E20081608093E2008091F101882377
:1042D00011F084E007C08091E30087FD02C081E017
:1042E00001C083E08093F00183E49AE00E94F4052A
:1042F0001092E3010E9484290E94C30F8091E10083
:1043000083FF2BC08091E20083FF27C08091E100F2
:10431000877F8093E10082E08093F0011092F101A9
:104320008091E1008E7F8093E1008091E2008E7F9A
:104330008093E2008091E20080618093E20042E09D
:1043400060E080E00E9412188091F0008860809305
:10435000F00087E49AE00E94F405FF91EF91BF918D
:10436000AF919F918F917F916F915F914F913F910D
:104370002F910F900FBE0F901F901895FF920F93E3
:104380001F93CF93DF93909172028091E301892B69
:1043900020917102982F922B9093FA0180917302D1
:1043A000882391F0892B8093FA01ECEFF1E080E013
:1043B00096E09E0F9E1729F021912223D9F38F5F5B
:1043C000F9CF81110E947E29E091B001F091B101F5
:1043D0003097B1F10280F381E02D8AEF91E00995E9
:1043E0008091C70182FF2CC080FF04C082EE9AE05A
:1043F0000E94F405CAEFD1E00CED1AE0FC2E88E033
:10440000F80E8091C70180FF0BC088811F928F93A7
:104410001F930F930E948D060F900F900F900F9097
:104420002196FC12EECF8091C70180FF09C08AED72
:104430009AE0DF91CF911F910F91FF900C94F405BA
:10444000DF91CF911F910F91FF900895BF92CF926E
:10445000DF92EF92FF920F931F93CF93DF938C0124
:10446000C0907402D0907502E0907602F0907702CE
:1044700080916C0290916D02A0916E02B0916F02DA
:10448000C82AD92AEA2AFB2ACFE1D0E0D701C601FF
:104490000C2E04C0B695A795979587950A94D2F7E8
:1044A00080FF07C0BC2EB8018C2F0E94F214019728
:1044B00019F4219758F7B12C8B2DDF91CF911F91D3
:1044C0000F91FF90EF90DF90CF90BF900895CF9322
:1044D000DF93EC010E942622BE010E94F214DF91BC
:1044E000CF9108950E946722292F2F7092959F7077
:1044F000E92FF0E03297EE30F105B8F4E459FF4FC0
:104500000C949F2B803F99F018F4883E70F40FC0F4
:10451000843F59F40CC0883E50F0813F31F407C00D
:10452000822F869586958695089580E0089581E08E
:1045300008952FE0929F800D1124682F669566954F
:104540006695982F977085E0689FB001112440E030
:1045500050E080E0FA01E60FF71FE65CFD4F208196
:1045600030E0092E02C0369527950A94E2F72170B3
:104570003327042E01C0220F0A94EAF7822B4F5FE3
:104580005F4F4530510531F708952FE0929F800D20
:104590001124A82FA695A695A695877051E001C075
:1045A000550F8A95EAF785E0A89FD001112420E0F5
:1045B00030E070E0F901EA0FFB1FE65CFD4F40813F
:1045C000CB01022E02C0969587950A94E2F781707E
:1045D0009927819584278523842780832F5F3F4FE8
:1045E0002530310539F708958091390290910802FC
:1045F000891719F08F5F8770FBCF089580910702AC
:1046000082958F7009F054C080910402882309F4C8
:104610004FC080913902A09108026091020270910E
:1046200003024091050250910602B6E08A1709F490
:104630003FC090E041155105C1F17F3F11F46F3F3C
:10464000A1F1B89FF001B99FF00D1124E75FFD4F74
:10465000218172132AC02081621327C02281211177
:1046600024C0238134812417350710F421503109E7
:10467000241B350B283C3105C0F4209107022F7014
:1046800020612093070226E0289FF001299FF00D6A
:104690001124E25FFD4F80818F708061808382E012
:1046A00092E00E9496060C94F42201968770BECF89
:1046B0000895BF92CF92DF92EF92FF920F931F93D4
:1046C000CF93DF93CDB7DEB761970FB6F894DEBF17
:1046D0000FBECDBF8C0185E0F801DE011D96019073
:1046E0000D928A95E1F7D8013C9111962C91119782
:1046F0001296EC9012971396CD90DC9014975091EF
:1047000002026091030280910502909106020097D7
:1047100009F44FC16F3F19F45F3F09F44AC1B090EB
:104720000402BB2009F4ECC040910702C816D90668
:1047300028F0F601E81BF90BCF0104C08095909595
:104740008C0D9D1DFF24F394883C910548F0F12CBD
:10475000407F09F09FC082E092E00E94960621C14E
:10476000842F807F09F044C0621312C0531310C01D
:10477000E1100EC04F7040614093070282E092E06A
:104780000E94960680910702D80115968C932EC040
:10479000CD2819F12F3F11F43F3FF9F0FE2CE11025
:1047A0001CC0809139024091080256E0841709F438
:1047B00058C090E0589FF001599FF00D1124E75F19
:1047C000FD4F6181261306C06081361303C06281EC
:1047D000611103C001968770E9CFFE2CEE2009F429
:1047E00015C180910702816080930702F12C0EC1F0
:1047F00062130AC0531308C0E11006C0809107027B
:10480000D80115968C93B0C03D872E878D859E85E7
:104810000E9472228823D1F1EE20C1F1209107027B
:10482000822F82958F7090E0029774F0809102023F
:104830009091030298878F831986DB86CA862C871E
:10484000CE0107960E94960686E0F801A2E0B2E04B
:1048500001900D928A95E1F70E94FE22FF24F394C5
:10486000D5C03D872E878D859E850E946722292F82
:1048700022952F7030E0223031050CF0BBC09F70C4
:1048800009F0B5C0805E883008F4C0C0C8010E943D
:104890009606E4CF621314C0531312C0E11010C087
:1048A00080910702F8018583C8010E94960686E080
:1048B000E2E0F2E0DF011D928A95E9F7FB2CA6C049
:1048C0003D872E878D859E850E9472228823F1F276
:1048D000EE20E1F220910702822F82958F7090E006
:1048E00002970CF4B1CF80910202909103029A8357
:1048F00089831B82DD82CC822E83CE010196A2CFDA
:10490000C816D90638F0C81AD90AB8ECCB16D104A3
:1049100050F007C0809590958C0D9D1D883C9105A9
:1049200010F0F12C3EC0FE2CEE2009F4AFCF621344
:1049300027C0531325C02091070220FD18C0822FE5
:1049400082958F70482F50E04115510581F0F80194
:1049500025834F30510541F08F5F982F9295907FBE
:10496000822F8F70892B8583C8010E94960686E06E
:10497000F801A2E0B2E001900D928A95E1F746C0FD
:104980003D872E878D859E850E94722281115CCF86
:1049900080910702816080930702C8010E949606F9
:1049A00035C0E2E0F2E086E0DF011D928A95E9F78A
:1049B0002DC0EE2009F46ACF3D872E878D859E8518
:1049C0000E947222F82E882309F460CF86E0F80155
:1049D000A2E0B2E001900D928A95E1F78091020287
:1049E000909103020E9467220E94FE220FC0811153
:1049F00049CF0CC0243031050CF048CF9F7009F42A
:104A000041CFF8019581907F09F03CCF8F2D6196C1
:104A10000FB6F894DEBF0FBECDBFDF91CF911F91CF
:104A20000F91FF90EF90DF90CF90BF90089510927C
:104A30007202109271020E94BE21EDEBF1E086E05D
:104A4000DF011D928A95E9F71092C30110927C0252
:104A50000E94022880E090E00E94AD0F80E090E08C
:104A60000C94970F60936C0270936D0280936E02AA
:104A700090936F020C9417250F931F9341E050E021
:104A800060E070E004C0440F551F661F771F8A95D1
:104A9000D2F7409550956095709580916C029091F9
:104AA0006D02A0916E02B0916F028A019B010823F2
:104AB00019232A233B23C901B8011F910F910C949C
:104AC0003225209170028095822380937002982F66
:104AD000977079F430E0482F082E000C550B2417FE
:104AE000350739F08595859585950E943C2510926E
:104AF000700208950F931F9341E050E060E070E072
:104B000004C0440F551F661F771F8A95D2F7809106
:104B10006C0290916D02A0916E02B0916F028A01B9
:104B20009B01082B192B2A2B3B2BC901B8011F9184
:104B30000F910C94322560937402709375028093E8
:104B40007602909377020C9417258091E5010895E1
:104B5000CF93DF9300D01F92CDB7DEB72091F00145
:104B6000243031F523E02983805891099B838A837F
:104B700082E08093E9008FEF9091E800815095FDED
:104B800006C095ED9A95F1F700008111F5CF80915F
:104B9000E80085FF0DC040E050E063E070E0CE012A
:104BA00001960E94BD1C8091E8008E778093E800FA
:104BB0000F900F900F90DF91CF9108950F931F9357
:104BC000CF93DF9300D01F92CDB7DEB78C010E9448
:104BD000AA18823011F0843021F584E089831B8388
:104BE0000A8382E08093E9008FEF9091E800815082
:104BF00095FD06C095ED9A95F1F700008111F5CF6E
:104C00008091E80085FF0DC040E050E063E070E077
:104C1000CE0101960E94BD1C8091E8008E778093A2
:104C2000E8000F900F900F90DF91CF911F910F919F
:104C30000895CF93DF93EC010E94AA18823011F0FF
:104C40008430F9F482E08093E9009FEF8091E800DE
:104C5000915085FD06C085ED8A95F1F70000911110
:104C6000F5CF8091E80085FF0CC040E050E066E0A1
:104C700070E0CE010E94BD1C8091E8008E77809389
:104C8000E800DF91CF910895CF93DF93EC010E946C
:104C9000AA18823011F0843039F581E08093E90060
:104CA0008FEF9091E800815095FD06C095ED9A95A3
:104CB000F1F700008111F5CF8091E80085FF14C065
:104CC00040E050E068E070E0CE010E94BD1C8091A1
:104CD000E8008E778093E80088E0FE01A6EEB1E060
:104CE00001900D928A95E1F7DF91CF910895803F71
:104CF00039F48091C00187FF6CC01092C00169C077
:104D0000813F29F48091C0011816BCF362C09091D4
:104D1000BF01823F29F497FF5CC01092BF0159C0C8
:104D2000833F19F41916CCF354C0893F41F48091A4
:104D3000C10118160CF04DC01092C1014AC08A3F43
:104D400029F48091C10187FF44C0F6CF8B3F39F42D
:104D50008091C20187FF3DC01092C2013AC08C3FD2
:104D600029F48091C2011816BCF333C0843F21F4AA
:104D70008091BE018E7F17C0853F21F48091BE01D6
:104D80008D7F11C0863F21F48091BE018B7F0BC0C7
:104D9000873F21F48091BE01877F05C0883F31F4B1
:104DA0008091BE018F7E8093BE0113C08D3F21F4A0
:104DB00080917C028E7F0BC08E3F21F480917C021B
:104DC0008D7F05C08F3F29F480917C028B7F80937B
:104DD0007C028091BF0181110EC08091C0018111C0
:104DE0000AC08091C101811106C08091C201811168
:104DF00002C01092C301089580917C0280FD16C00C
:104E000081FD16C082FD18C08091C301882391F0F6
:104E1000883290F428E0829FC001112468E270E09B
:104E20000E948B2B862F672B29F007C082E0089504
:104E300084E0089581E0089588E0089580917C02DF
:104E400080FD14C081FD14C082FD16C08091C30195
:104E5000882381F0843180F422E3829FC0011124F1
:104E600064E170E00E948B2B862F08958CE00895FA
:104E700089E1089585E0089582E30895803F21F453
:104E80000E941E27819504C0813F29F40E941E279D
:104E90008093C0010895823F21F40E941E278195CE
:104EA00004C0833F29F40E941E278093BF01089508
:104EB000893F19F40E94FC2605C08A3F31F40E9404
:104EC000FC2681958093C10108958B3F21F40E94B7
:104ED000FC26819504C08C3F29F40E94FC26809317
:104EE000C2010895843F21F48091BE01816017C002
:104EF000853F21F48091BE01826011C0863F21F47C
:104F00008091BE0184600BC0873F21F48091BE0177
:104F1000886005C0883F31F48091BE018061809334
:104F2000BE0108958D3F21F480917C0281600BC009
:104F30008E3F21F480917C02826005C08F3F29F46E
:104F400080917C02846080937C02089578941F9203
:104F50000F920FB60F9211248F939F93AF93BF932D
:104F60008091780290917902A0917A02B0917B02AF
:104F70000196A11DB11D8093780290937902A093B0
:104F80007A02B0937B02BF91AF919F918F910F9066
:104F90000FBE0F901F901895CF92DF92EF92FF9265
:104FA0000F931F932FB7F894409178025091790294
:104FB00060917A0270917B022FBF6A017B01EE241F
:104FC000FF248C0120E030E0C016D106E206F30693
:104FD00010F4415051099A01281B390BC9011F9146
:104FE0000F91FF90EF90DF90CF9008952FB7F89436
:104FF0008091780290917902A0917A02B0917B021F
:105000002FBF08958091C70183FF7EC08BE19BE095
:105010000E94F4058091BE011F928F9386E19BE070
:105020009F938F930E948D0684E19BE00E94F4057C
:105030008091BF01282F082E000C330B3F938F93D4
:1050400081E19BE09F938F930E948D068FE09BE010
:105050000E94F4058091C001282F082E000C330B0C
:105060003F938F938CE09BE09F938F930E948D06DC
:105070008AE09BE00E94F4058091C101282F082E50
:10508000000C330B3F938F9387E09BE09F938F93AC
:105090000E948D0685E09BE00E94F4058091C2018C
:1050A000282F082E000C330B3F938F9382E09BE058
:1050B0009F938F930E948D068FEF9AE00E94F405D4
:1050C0008091C3011F928F938CEF9AE09F938F93EF
:1050D0000E948D068AEF9AE00E94F40580917C027E
:1050E0001F928F9387EF9AE09F938F930E948D0674
:1050F00084EF9AE00E94F4058DB79EB74C960FB6E8
:10510000F8949EBF0FBE8DBFE091B001F091B10148
:10511000309749F082E08093BD010480F581E02D55
:105120008DEB91E009950E94F6279093C50180933D
:10513000C40108951F920F920FB60F9211248F93FE
:105140009F93AF93BF938091B201811113C080915F
:10515000780290917902A0917A02B0917B024196F7
:10516000A11DB11D8093780290937902A0937A02D9
:10517000B0937B02BF91AF919F918F910F900FBE23
:105180000F901F901895FC013296089620812613E7
:1051900001C010823196E817F907C1F708959C0104
:1051A000FC0132969FEF80E04191461789F09F3FC6
:1051B00019F4411101C0982F8F5F8630A9F79F3FE6
:1051C00039F0F901E90FF11D97FDFA956283089511
:1051D0000895CF9384E090E00E94232BC82F81E2B2
:1051E00090E00E94232B2C2F30E0A901582BCA01FC
:1051F000CF91089580E090E00E94312B21E08C3E19
:105200009E4F09F020E0822F08956CEE7EEF80E043
:1052100090E00E94552B60E082E090E00E94372BE6
:1052200060E083E090E00E94372B109274021092AD
:105230007502109276021092770260E084E090E0AE
:105240000E94372B60E081E290E00E94372B60E003
:1052500085E090E00E94372B60E086E090E00E94BD
:10526000372B6FEF87E090E00E94372B40E050E053
:10527000BA0188E090E00E94492B60E08DE090E068
:105280000E94372B40E050E0BA0188E190E00E9494
:10529000492B60E087E190E00E94372B40E050E02E
:1052A000BA018CE190E00E94492B60E080E290E03E
:1052B0000E94372B40E050E0BA018FE090E00E945E
:1052C000492B40E050E0BA0183E190E00C94492B77
:1052D0008295982F9C7C392F36953695282F2373ED
:1052E00044E0249FC0011124932F982B292F2A7A60
:1052F0002695892F8575880F822B089580917302DA
:10530000811110927302089586E0ECEFF1E0DF0165
:105310001D928A95E9F70C941725882341F0809512
:105320009091E30189238093E3010C94BE210895B9
:10533000882339F09091E301892B8093E3010C9449
:10534000BE210895882309F463C0823869F40E945D
:10535000C30F81FF5DC069E38AEF91E00E94CF280F
:105360000E94BE2169E30EC0833891F40E94C30FEE
:1053700080FF4EC063E58AEF91E00E94CF280E9433
:10538000BE2163E58AEF91E00E94C3280C94BE2100
:10539000843869F40E94C30F82FF3AC067E48AEF41
:1053A00091E00E94CF280E94BE2167E4EBCF9CEFE2
:1053B000980F913A10F4682FE5CF90E2980F98304B
:1053C00088F4877021E030E0A90102C0440F551F26
:1053D0008A95E2F7CA0180959091E3018923809331
:1053E000E301D4CF9BE5980F933020F480E090E068
:1053F0000C94AD0F98E5980F973120F480E090E081
:105400000C94970F803F20F00E9477260C9402287E
:105410000895882309F416C18238B1F40E94C30F9D
:1054200081FD10C169E38AEF91E00E94CF280E94BC
:10543000BE212FEF41EE54E0215040405040E1F7B3
:1054400000C0000069E317C08338D9F40E94C30F7D
:1054500080FDF8C063E58AEF91E00E94CF280E94AA
:10546000BE218FEF91EE24E0815090402040E1F783
:1054700000C0000063E58AEF91E00E94C3280C940D
:10548000BE218438B1F40E94C30F82FDDBC067E403
:105490008AEF91E00E94CF280E94BE214FEF51EE8B
:1054A00084E0415050408040E1F700C0000067E4D4
:1054B000E2CF9CEF980F913A30F4682F8AEF91E099
:1054C0000E94CF28DCCF90E2980F983080F487704C
:1054D00021E030E0A90102C0440F551F8A95E2F790
:1054E000CA019091E301892B8093E301C8CF9BE52A
:1054F000980F933070F4853A29F0863A31F083E8BA
:1055000090E005C081E890E002C082E890E00C9451
:10551000AD0F98E5980F973108F08EC0883A09F4DE
:1055200045C0893A09F445C08A3A09F445C08B3A26
:1055300009F445C08C3A09F445C08B3B09F445C0D9
:105540008C3B09F445C08D3A09F445C0803B09F411
:1055500045C08E3A09F445C08F3A09F445C0813BF5
:1055600009F445C0823B09F445C0833B09F445C0BA
:10557000843B09F445C0853B09F445C0863B09F4EA
:1055800045C0873B09F445C0883B09F445C0893BC9
:1055900009F445C08D3B09F445C08E3B09F445C074
:1055A0008A3B09F445C080E090E044C082EE90E080
:1055B00041C089EE90E03EC08AEE90E03BC085EBB2
:1055C00090E038C086EB90E035C083EB90E032C0CD
:1055D00084EB90E02FC087EB90E02CC08CEC90E047
:1055E00029C08DEC90E026C083E891E023C08AE8D2
:1055F00091E020C082E991E01DC084E991E01AC0E9
:1056000081E292E017C083E292E014C084E292E06B
:1056100011C085E292E00EC086E292E00BC087E204
:1056200092E008C08FE690E005C080E790E002C0FD
:105630008AE292E00C94970F803F20F00E943E2770
:105640000C9402280895F999FECF92BD81BDF89A75
:10565000992780B50895A6E1B0E044E050E00C94AD
:105660005D2BA8E1B0E042E050E00C945D2B262FCA
:10567000F999FECF92BD81BDF89A019700B4021648
:1056800039F01FBA20BD0FB6F894FA9AF99A0FBEF6
:1056900008950396272F0E94382B0E94372B252F21
:1056A0000E94382B242F0C94382B0196272F0E9410
:1056B000382B0C94372BDC01CB01FC01F999FECF80
:1056C00006C0F2BDE1BDF89A319600B40D9241508A
:1056D0005040B8F70895991B79E004C0991F9617B8
:1056E00008F0961B881F7A95C9F780950895AA1B24
:1056F000BB1B51E107C0AA1FBB1FA617B70710F0BD
:10570000A61BB70B881F991F5A95A9F780959095EE
:10571000BC01CD01089597FB072E16F4009407D025
:1057200077FD09D00E94772B07FC05D03EF49095B9
:1057300081959F4F0895709561957F4F0895EE0F65
:10574000FF1F0590F491E02D0994FC014150504059
:1057500030F001900616D1F73197CF0108958827D0
:0857600099270895F894FFCF8A
:1057680001191A1B1C1D1E1F2021220102A52544F8
:10577800261926A825DE25010001020202020606D6
:10578800060909090909090F0F0F0F0F0F1515153C
:1057980018191919191919191919192324303367DE
:1057A8003666F6F5F4F1C6959392919094969734EF
:1057B80035408522F709720950095D0A760A8F0A71
:00000001FF
